:020000040800F2
:1000000000500020F91800081D18000823180008E7
:10001000291800082F1800083518000800000000F3
:100020000000000000000000000000003B18000875
:100030004718000800000000531800085F18000867
:100040004119000841190008411900084119000828
:100050004119000841190008411900084119000818
:100060004119000841190008411900084119000808
:1000700041190008411900084119000841190008F8
:1000800041190008411900084119000841190008E8
:1000900041190008411900084119000841190008D8
:1000A00041190008411900084119000841190008C8
:1000B00041190008411900086D180008411900088D
:1000C00041190008411900084119000841190008A8
:1000D0004119000841190008411900084119000898
:1000E00041190008411900084119000800000000EA
:1000F0000000000000000000000000000000000000
:0C01000000000000000000005FF808F1A3
:1001100010B5054C237833B9044B13B10448AFF341
:1001200000800123237010BD780000200000000033
:100130003845000808B5034B1BB103490348AFF32A
:10014000008008BD000000007C0000203845000849
:1001500053B94AB9002908BF00281CBF4FF0FF312E
:100160004FF0FF3000F06EB9ADF1080C6DE904CE30
:1001700000F006F8DDF804E0DDE9022304B0704782
:100180002DE9F047089E0D4604468E46002B40F0B0
:1001900083808A42174647D9B2FA82F34BB1C3F142
:1001A000200105FA03FE20FA01F19F4041EA0E0EFC
:1001B0009C404FEA1748BEFBF8FC1FFA87F908FB82
:1001C0001CE20CFB09F0210C41EA024290420AD9E0
:1001D000BA180CF1FF3180F01881904240F215817D
:1001E000ACF1020C3A44121AB2FBF8F008FB1022F0
:1001F00000FB09F1A4B244EA0244A14209D93C1926
:1002000000F1FF3280F00381A14240F20081023808
:100210003C44641A002140EA0C401EB10022DC403C
:10022000C6E90042BDE8F08702B9FFDEB2FA82F308
:10023000002B4FD18D1A01214FEA124E1FFA82F87E
:10024000B5FBFEFC0EFB1C5508FB0CF0220C42EA31
:100250000545A84207D97D190CF1FF3202D2A84208
:1002600000F2E98094462D1AB5FBFEF00EFB105506
:1002700008FB00F8A4B244EA0544A04507D93C199C
:1002800000F1FF3202D2A04500F2D9801046A4EB63
:10029000080440EA0C40C0E78B4208D9002E00F069
:1002A000B1800021C6E900050846BDE8F087B3FA31
:1002B00083F100294BD1AB4202D3824200F2B980D4
:1002C000841A65EB030301209E46002EAAD0C6E9DE
:1002D000004EA7E79F40C3F12002D1404FEA174EDE
:1002E000B1FBFEF01FFA87F80EFB101124FA02F2A0
:1002F0009D4000FB08FC2A43150C45EA0145AC452E
:1003000004FA03F409D97D1900F1FF3180F08F80E0
:10031000AC4540F28C8002383D44A5EB0C05B5FBA2
:10032000FEF10EFB115C01FB08F995B245EA0C45A4
:10033000A94507D97D1901F1FF3274D2A94572D9B7
:1003400002393D44A5EB090541EA004178E7C1F1D6
:1003500020078B4022FA07FC4CEA030C25FA07F42D
:100360004FEA1C4EB4FBFEF91FFA8CF80EFB194441
:1003700020FA07F309FB08FA8D401D432B0C43EAD2
:100380000444A24502FA01F200FA01F309D91CEB78
:10039000040409F1FF3048D2A24546D9A9F1020967
:1003A0006444A4EB0A04B4FBFEF00EFB104400FB13
:1003B00008FAADB245EA0444A24508D91CEB04048E
:1003C00000F1FF352DD2A2452BD90238644440EA12
:1003D0000940A0FB0289A4EB0A044C45C6464D46E1
:1003E00019D316D05EB1B3EB0E0264EB050404FA28
:1003F00007F722FA01F31F43CC40C6E9007400213D
:10040000BDE8F087314630460CE78C46EBE61046F7
:10041000FFE64345E6D2B8EB020E69EB0C05013866
:10042000E0E72846D3E711468CE78146B9E708465E
:1004300073E7084649E7ACF1020C3D4413E7023884
:100440003C4424E7704700BF80B584B000AF7860BB
:100450000B46FB707B681B68FA781146184600F063
:10046000D0FB7B681B68184600F0EBFB0346FB7370
:100470007B681B680121184600F088FBFB7B18464F
:100480001037BD4680BD80B582B000AF78600B46A6
:10049000FB701346BB707B681B680021184600F098
:1004A00075FB7B681A68FB7863F07F03DBB2194643
:1004B000104600F0A6FB7B681B68BA781146184608
:1004C00000F09FFB7B681B680121184600F05EFB73
:1004D00000BF0837BD4680BD90B587B000AFF8605B
:1004E0007A601A460B46FB721346BB72BB7A012B2D
:1004F00027D9FB681B680021184600F047FBFB6802
:100500001B68FA7A1146184600F07BFB0023FB7546
:100510000CE0FB681968FB7D7A68D418084600F087
:1005200090FB03462370FB7D0133FB75FA7DBB7A9C
:100530009A42EED3FB681B680121184600F026FBA7
:1005400000E000BF1C37BD4690BD80B586B000AF4F
:10055000F8607A601A460B46FB721346BB72BB7A90
:10056000012B29D9FB681B680021184600F00EFBFF
:10057000FB681A68FB7A63F07F03DBB2194610460A
:1005800000F03FFB0023FB750BE0FB681868FB7D68
:100590007A6813441B78194600F033FBFB7D013366
:1005A000FB75FA7DBB7A9A42EFD3FB681B68012189
:1005B000184600F0EBFA00E000BF1837BD4680BDDA
:1005C00080B586B000AF7860786800F00DF90F2034
:1005D00000F05DFB786800F017F97B68D3E902232F
:1005E0004FF000004FF00001D90441EA5231D0042D
:1005F0006F4A4FF00003FFF7ABFD02460B46C7E919
:100600000423D7E904014FF000024FF00003020C6D
:1006100042EA01420B0CD3B23B73D7E904014FF01D
:1006200000024FF00003020A42EA01620B0AD3B251
:100630007B733B7CBB7307F10C02032306217868B4
:10064000FFF783FF342239217868FFF71CFF7B68AE
:100650001B7C1A46574B9B5C1A4609217868FFF7AA
:1006600012FF0B220B217868FFF70DFF23220C21CC
:100670007868FFF708FF7B685B7C1A464E4B9B5CF3
:10068000062B47D17B689B7C1A464C4B9B5C1B011D
:10069000DAB27B68DB7C1946494B5B5C5B00DBB202
:1006A0001344DBB20133DBB21A461D217868FFF731
:1006B000EAFE7B685B7C1A463F4B9B5C1B01DAB20F
:1006C0007B681B7D19463F4B5B5C9B00DBB2134490
:1006D000DBB20333DBB21A461E217868FFF7D3FE84
:1006E00031217868FFF7B0FE0346FB73FB7B23F0F4
:1006F0000703FB73FB7B43F00503FB73FB7B1A468D
:1007000031217868FFF7BFFE0C2237217868FFF7A8
:10071000BAFE29E07B689B7C1A46284B9B5C1B0138
:10072000DAB27B68DB7C1946254B5B5C5B00DBB295
:100730001344DBB21A461D217868FFF7A4FE7B68DC
:100740005B7C1A461C4B9B5C1B01DAB27B681B7DF1
:1007500019461C4B5B5C9B00DBB21344DBB21A46B0
:100760001E217868FFF78FFE042226217868FFF7A4
:100770008AFE08221F217868FFF785FE00222021CB
:100780007868FFF780FE082221217868FFF77BFE5A
:10079000012241217868FFF776FE7B68002283F80A
:1007A0001721786800F010F800BF1837BD4680BDEB
:1007B0000048E8013C46000840460008484600085A
:1007C000544600085846000880B582B000AF7860F3
:1007D000092201217868FFF756FE7B6801229A758D
:1007E00000BF0837BD4680BD80B582B000AF7860DD
:1007F000082201217868FFF746FE7B6800229A757F
:1008000000BF0837BD4680BD80B582B000AF7860BC
:10081000882201217868FFF736FE00BF0837BD4601
:1008200080BD80B582B000AF7860FF221221786869
:10083000FFF729FE00BF0837BD4680BD80B586B0F2
:1008400000AFF8600B467A60FB72FB68FA7A5A7563
:10085000F868FFF7B5FE84224D21F868FFF713FE14
:10086000FF222421F868FFF70EFE01224021F868DC
:10087000FFF709FE3F221121F868FFF704FEF86830
:10088000FFF7CFFFFB7A1A462221F868FFF7FBFD3E
:100890000F21F868FFF7D8FD0346FB75FB7D1A466C
:1008A0000D21F868FFF7EFFD8D220121F868FFF7B1
:1008B000EAFDFB68002283F817211821F868FFF78A
:1008C000C3FD034603F00403042B04D1FB68032299
:1008D0009A75012313E07B68013B7B607B68002BEA
:1008E00009D1FB681B68184600F067F9F868FFF744
:1008F00067FE002303E0012000F0C9F9DDE7184698
:100900001837BD4680BD80B584B000AF78607B6885
:100910001B68184600F0C6F90346002B30D07B68F0
:1009200017334FF480720021184603F0B7F91021F5
:100930007868FFF789FD0346BB73BB7B1A460D2120
:100940007868FFF7A0FD7B685B7C002B03D17B6898
:100950005B7DFB7305E013217868FFF775FD0346A7
:10096000FB737B6803F11702FB7B00217868FFF7BC
:10097000B3FD7B68FA7B83F817217868FFF751FF96
:100980007B6893F8173118461037BD4680BD80B597
:1009900086B000AFF8600B467A60FB72FB68FA7AAB
:1009A0005A75F868FFF70CFE87224D21F868FFF7AB
:1009B0006AFD00222421F868FFF765FD41224021ED
:1009C000F868FFF760FDF868FFF72BFFF7221121A9
:1009D000F868FFF758FDFB7A1A462221F868FFF7FE
:1009E00052FD0E21F868FFF72FFD0346FB75FB7DD6
:1009F0001A460D21F868FFF746FD2221F868FFF737
:100A000023FD0346BB75BA7DFB7A9A4204D1FB688D
:100A100002229A7501230EE07B68013B7B607B68B4
:100A2000002BEAD1FB681B68184600F0C6F8F8688E
:100A3000FFF7C6FD002318461837BD4680BD80B5B8
:100A400084B000AFF860B9603B601346FB71FB797E
:100A5000BA680021F868FFF778FD8B220121F86859
:100A6000FFF711FDFB681B68184600F01BF90346F1
:100A7000002B0BD01221F868FFF7E6FCF868FFF7AF
:100A8000D0FEF868FFF7A0FE012313E03B68013BAE
:100A90003B603B68002B09D1FB681B68184600F0DF
:100AA0008CF8F868FFF78CFD002303E0012000F0CC
:100AB000EEF8D7E718461037BD4680BD80B584B044
:100AC00000AFF860C7E90023FB681B68184600F018
:100AD00048F8F968D7E90023C1E90223FB683A7EA8
:100AE0001A74FB683A7F5A74FB6897F820209A744E
:100AF000FB6897F82420DA74FB6897F828201A75A9
:100B0000FB6897F82C205A75F868FFF759FD00BF6D
:100B10001037BD4680BD80B584B000AFF860B960C5
:100B20001346FB71FB6893F81731FA799A4203D0A8
:100B3000FB6893F81731FB71FB681733FA79194694
:100B4000B86803F09DF8FB79BA68134400221A7064
:100B5000FB68002283F81721FB7918461037BD4641
:100B600080BD80B582B000AF78600121786800F068
:100B70000DF87B6858687B681B689BB20122194698
:100B800001F0B1F900BF0837BD4680BD80B582B025
:100B900000AF786039607B6858697B681B6999B2DF
:100BA0003B68012B0CBF01230023DBB21A4601F086
:100BB0009AF900BF0837BD4680BD80B582B000AF4E
:100BC000786001217868FFF7E1FF7B6858687B68EF
:100BD0001B689BB20022194601F085F9012000F044
:100BE00056F87B6858687B681B689BB201221946DF
:100BF00001F079F9642000F04AF800BF0837BD46DB
:100C000080BD80B582B000AF78600B46FB700021DC
:100C10007868FFF7BBFF7B689869F91C4FF47A731B
:100C2000012201F03BFE00BF7B689B69184602F081
:100C300022F90346012BF7D100BF00BF0837BD469C
:100C400080BD80B586B002AF78600023FB730023BF
:100C5000BB7300217868FFF799FF7B68986907F1FB
:100C60000E0207F10F014FF47A730093012301F094
:100C700059FF00BF7B689B69184602F0FCF80346E9
:100C8000012BF7D1BB7B18461037BD4680BD80B520
:100C900082B000AF7860786800F086FE00BF083749
:100CA000BD4680BD80B582B000AF78607B68DA68F1
:100CB0007B689B689BB21946104601F0FDF803461D
:100CC000012B0CBF01230023DBB218460837BD46B9
:100CD00080BD00000FB480B5A2B000AF07F194034F
:100CE0003B60381D3B68D7F89020802103F00AF85C
:100CF000C7F88400D7F88430002B0FDDD7F8843094
:100D0000802B02D98023C7F88430D7F884309AB278
:100D1000391D4FF4FA73054802F0B4FD00BF88375F
:100D2000BD46BDE8804004B0704700BF38010020D8
:100D300080B582B000AF786039603B689AB24FF4FA
:100D4000FA737968034802F09DFD00BF0837BD467D
:100D500080BD00BFF000002080B584B000AF786097
:100D600039607B68DBB23A6819460748FFF70FFE27
:100D70000346FB73FB7B19460448FFF7ABFFFB7B85
:100D800018461037BD4680BD20020020504500089F
:100D900080B586B000AFF860B9607A601548FFF79B
:100DA00099FF00237B610AE0FA687B6913441B7892
:100DB00019461148FFF78EFF7B6901337B617A6921
:100DC000BB689A42F0D30D48FFF784FFBB68DAB2E4
:100DD0007B68F9680A48FFF732FE0346FB74FB7C28
:100DE00019460848FFF776FFFB7C18461837BD46C2
:100DF00080BD00BF64450008744500087C450008BC
:100E0000200200208045000880B584B000AF7860E3
:100E100039607B68DBB23A6819460748FFF70EFD78
:100E20000346FB73FB7B19460448FFF753FFFB7B2C
:100E300018461037BD4680BD2002002094450008AA
:100E400080B584B000AF7860C82000F0ADFD1648D2
:100E5000FFF759FD0346BB73BB7B002B1FD0BB7B49
:100E60001A4679681048FFF756FE1048FFF732FF20
:100E70000023FB730AE0FB7B7A6813441B78194656
:100E80000B48FFF727FFFB7B0133FB73FA7BBB7B30
:100E90009A42F0D30748FFF71DFFBB7B00E0002319
:100EA00018461037BD4680BD20020020A845000826
:100EB000744500087C45000880B485B000AF034647
:100EC0003960FB71FB79222B02D0332B1AD03CE026
:100ED0003B6822221A703B680133FF221A700223FA
:100EE000FB730AE0FB7B9A1EFB7B39680B441A49B3
:100EF0008A5C1A70FB7B0133FB73FB7B062BF1D9F9
:100F0000072323E03B6833221A703B680133FF223A
:100F10001A70124B1B785A1CD1B2104A11703A68E1
:100F2000023213700323BB730AE0BB7BDA1EBB7B68
:100F300039680B4408498A5C1A70BB7B0133BB7368
:100F4000BB7B072BF1D9082300E000231846143798
:100F5000BD4680BC704700BF000000209400002008
:100F600080B588B000AF78600B46FB707B681B785B
:100F7000BB767B685B787B7600233B760023FB7532
:100F80000023BB750023FB6007F1100300221A60E9
:100F90009A80BB7E012B02D0022B29D052E0002385
:100FA000FB6120E0294AFB6913441B787A7E9A4250
:100FB00005D17B7E19462648FFF78CFE17E0234AB1
:100FC000FB6913441B78002B0AD1204AFB691344A8
:100FD0007A7E1A707B7E19461E48FFF77BFE06E07C
:100FE000FB690133FB61FB69042BDBDD2AE029E0AF
:100FF0007B689B783B767B68DB78FB757B681B792D
:10100000BB75FB7D1449BA7DCA543B7E3B730123FB
:10101000FB760DE0FB7E04337A681A44FB7E12787F
:1010200007F120010B4403F8142CFB7E0133FB76FF
:10103000FB7E082BEED907F10C0309211846FFF7B8
:1010400077FE00BF00BF2037BD4680BD00000020F6
:10105000B8450008D8450008DC00002080B584B001
:1010600000AF7860396000F095FCF8607B681B6821
:10107000FA68D31A3A689A4204D87B68FA681A6008
:10108000012300E0002318461037BD4680BD000054
:1010900080B58AB006AF00F055FC00F0ADF800F066
:1010A000C1F900F0E5F800F069F900F091F900F0FD
:1010B00015F9494B494ADA60474B04229A60464B7E
:1010C000464A5A61444B10221A61434B434A5A60C4
:1010D000414B08221A60404B414A9A61414B3E4ABB
:1010E0001A604148FFF7F6FD0F2305930023049390
:1010F0000023039308230293012301930023009309
:1011000033A3D3E900233748FFF7D8FC3748FFF76C
:10111000E1FD4FF4FA6210213248FFF78FFB002304
:10112000BB6000237B603248FFF78AFE0346FB73F7
:10113000FB7B002B04D0FB7B19462D48FFF710FFEB
:1011400007F1080341F288311846FFF787FF03468D
:10115000002B17D027492220FFF7AEFE0346BB73B2
:10116000BB7B4FF47A711846FFF7F6FDBB7B4FF45B
:101170007A7219461F48FFF70BFE4FF42F710A20B1
:10118000FFF742FE3B1D42F6E0611846FFF766FF9F
:101190000346002B17D017493320FFF78DFE034677
:1011A0007B737B7B4FF47A711846FFF7D5FD7B7B11
:1011B0004FF47A7219460F48FFF7EAFD4FF42F718A
:1011C0000A20FFF721FEC82000F0EEFBABE700BFCE
:1011D000400ECF1900000000380300200008014035
:1011E000C801002020020020004600081C4600081C
:1011F000A00000209800002080B590B000AF07F15B
:10120000180328220021184602F048FD3B1D002249
:101210001A605A609A60DA601A610223BB61012386
:10122000BB621023FB6200237B6307F1180318469F
:1012300000F072FE0346002B01D000F071F90F237D
:101240007B600023BB600023FB6000233B61002325
:101250007B613B1D0021184601F0DEF80346002BA0
:1012600001D000F05DF900BF4037BD4680BD0000F1
:1012700080B500AF174B184A1A60164B4FF48272B4
:101280005A60144B00229A60124B0022DA60114B14
:1012900000221A610F4B00225A610E4B4FF400726C
:1012A0009A610C4B0022DA610A4B00221A62094B48
:1012B00000225A62074B00229A62064B0A22DA6227
:1012C000044801F067FA0346002B01D000F028F92A
:1012D00000BF80BDC80100200030014080B586B04D
:1012E00000AF07F1080300221A605A609A60DA60C2
:1012F0003B4600221A605A601E4B1F4A1A601D4B63
:1013000000225A601B4B00229A601A4B4FF6FF7264
:10131000DA60184B00221A61164B00225A61154BF5
:1013200000229A61134801F06CFE0346002B01D0A5
:1013300000F0F6F84FF48053BB6007F1080319463C
:101340000C4801F0EFFF0346002B01D000F0E8F855
:1013500000233B6000237B603B461946054802F0B2
:10136000D1F90346002B01D000F0DAF800BF18379E
:10137000BD4680BD80010020002C014080B500AF3B
:10138000114B124A1A60104B4FF4E1325A600E4B67
:1013900000229A600C4B0022DA600B4B00221A618B
:1013A000094B0C225A61084B00229A61064B00221D
:1013B000DA61054802F016FA0346002B01D000F06E
:1013C000AFF800BF80BD00BF3801002000380140E9
:1013D00080B500AF114B124A1A60104B4FF4E13246
:1013E0005A600E4B00229A600C4B0022DA600B4BC5
:1013F00000221A61094B0C225A61084B00229A61A3
:10140000064B0022DA61054802F0ECF90346002B96
:1014100001D000F085F800BF80BD00BFF0000020C3
:101420000048004080B588B000AF07F110030022EB
:101430001A605A609A60DA602D4B9B692C4A43F01F
:10144000100393612A4B9B6903F01003FB60FB6858
:10145000274B9B69264A43F004039361244B9B6905
:1014600003F00403BB60BB68214B9B69204A43F037
:10147000080393611E4B9B6903F008037B607B6844
:1014800000224FF400511B4800F02DFD00221821CE
:10149000194800F028FD4FF400533B6101237B61A4
:1014A0000023BB610223FB6107F1100319461148B9
:1014B00000F07EFB04233B6100237B610023BB61C2
:1014C00007F1100319460C4800F072FB18233B612A
:1014D00001237B610023BB610223FB6107F1100341
:1014E0001946054800F064FB00BF2037BD4680BDAB
:1014F00000100240001001400008014080B582B099
:1015000000AF78607B681B68044A934201D100F009
:101510002FFA00BF0837BD4680BD00BF000800405D
:1015200080B400AF72B600BFFEE7000080B485B0A3
:1015300000AF154B9B69144A43F001039361124BB2
:101540009B6903F00103BB60BB680F4BDB690E4A6C
:1015500043F08053D3610C4BDB6903F080537B6015
:101560007B680A4B5B68FB60FB6823F0E063FB6011
:10157000FB6843F08063FB60044AFB68536000BF74
:101580001437BD4680BC7047001002400000014087
:1015900080B588B000AF786007F1100300221A60B0
:1015A0005A609A60DA607B681B681B4A93422FD1AD
:1015B0001A4B9B69194A43F480539361174B9B69FB
:1015C00003F48053FB60FB68144B9B69134A43F0A0
:1015D00004039361114B9B6903F00403BB60BB6878
:1015E000A0233B6102237B610323FB6107F110030E
:1015F00019460B4800F0DCFA40233B6100237B6175
:101600000023BB6107F110031946054800F0D0FA2A
:1016100000BF2037BD4680BD0030014000100240B1
:101620000008014080B485B000AF78607B681B681B
:10163000094A93420BD1094B9B69084A43F4006362
:101640009361064B9B6903F40063FB60FB6800BF7A
:101650001437BD4680BC7047002C0140001002408A
:1016600080B58AB000AF786007F1180300221A60D5
:101670005A609A60DA607B681B68384A934232D1BC
:10168000374B9B69364A43F480439361344B9B69E3
:1016900003F480437B617B69314B9B69304A43F0A3
:1016A000040393612E4B9B6903F004033B613B6988
:1016B0004FF40073BB610223FB6103237B6207F1DC
:1016C00018031946274800F073FA4FF48063BB6192
:1016D0000023FB6100233B6207F1180319462148F0
:1016E00000F066FA36E07B681B681F4A934231D1EE
:1016F0001B4BDB691A4A43F48023D361184BDB6927
:1017000003F48023FB60FB68154B9B69144A43F08C
:1017100008039361124B9B6903F00803BB60BB682D
:101720004FF48063BB610223FB6103237B6207F1FB
:10173000180319460D4800F03BFA4FF40063BB61F3
:101740000023FB6100233B6207F118031946074899
:1017500000F02EFA00BF2837BD4680BD003801409A
:10176000001002400008014000480040000C014009
:1017700080B58CB000AF78600023FB620023BB62B1
:10178000002279681E2000F0E8F91E2000F001FA1E
:101790001E4BDB691D4A43F00403D3611B4BDB691D
:1017A00003F00403FB60FB6807F1100207F1140368
:1017B0001146184600F0A0FF00F076FFF862FB6AC1
:1017C000134AA2FB03239B0C013BBB62114B124A41
:1017D0001A60104B40F2E732DA600E4ABB6A53607F
:1017E0000C4B00221A610B4B00229A60094801F051
:1017F00008FC0346002B04D1064801F051FC0346C7
:1018000000E0012318463037BD4680BD001002407D
:1018100083DE1B43540300200008004080B400AF67
:10182000FEE780B400AFFEE780B400AFFEE780B40F
:1018300000AFFEE780B400AFFEE780B400AF00BFAA
:10184000BD4680BC704780B400AF00BFBD4680BCC1
:10185000704780B400AF00BFBD4680BC704780B405
:1018600000AF00BFBD4680BC7047000080B500AF30
:10187000024801F067FC00BF80BD00BF5403002098
:1018800080B586B000AF7860144A154BD31A7B61DF
:101890007B693B61134B1B68002B02D1114B124A31
:1018A0001A60104B1A687B6813443A699A4207D24F
:1018B00002F0BCF903460C221A604FF0FF3309E036
:1018C000084B1B68FB60074B1A687B681344054A8A
:1018D0001360FB6818461837BD4680BD00500020D5
:1018E00000040000E4000020B003002080B400AF3A
:1018F00000BFBD4680BC7047FFF7F8FF0B480C499E
:101900000C4A002302E0D458C4500433C4188C425B
:10191000F9D3094A094C002301E013600432A242C2
:10192000FBD302F089F9FFF7B3FB704700000020FA
:1019300078000020CC46000878000020B00300208A
:10194000FEE7000080B500AF084B1B68074A43F074
:1019500010031360032000F0F5F80F20FFF708FFD5
:10196000FFF7E4FD0023184680BD00BF00200240C1
:1019700080B400AF054B1B781A46054B1B68134417
:10198000034A136000BFBD4680BC704710000020B2
:101990009C03002080B400AF024B1B681846BD4674
:1019A00080BC70479C03002080B584B000AF786095
:1019B000FFF7F0FFB8607B68FB60FB68B3F1FF3FA7
:1019C00005D00A4B1B781A46FB681344FB6000BF26
:1019D000FFF7E0FF0246BB68D31AFA689A42F7D8CD
:1019E00000BF00BF1037BD4680BD00BF1000002003
:1019F00080B485B000AF78607B6803F00703FB60BC
:101A00000C4BDB68BB60BA684FF6FF031340BB604A
:101A1000FB681A02BB68134343F0BF6343F400330F
:101A2000BB60044ABB68D36000BF1437BD4680BCAE
:101A3000704700BF00ED00E080B400AF044BDB68EE
:101A40001B0A03F007031846BD4680BC704700BF61
:101A500000ED00E080B483B000AF0346FB7197F95E
:101A60000730002B0BDBFB7903F01F02064997F9C7
:101A700007305B09012000FA02F241F8232000BF81
:101A80000C37BD4680BC704700E100E080B483B0F5
:101A900000AF03463960FB7197F90730002B0ADB72
:101AA0003B68DAB20C4997F907301201D2B20B4405
:101AB00083F800230AE03B68DAB20849FB7903F0B7
:101AC0000F03043B1201D2B20B441A7600BF0C374D
:101AD000BD4680BC704700BF00E100E000ED00E0C3
:101AE00080B489B000AFF860B9607A60FB6803F039
:101AF0000703FB61FB69C3F10703042B28BF042321
:101B0000BB61FB690433062B02D9FB69033B00E090
:101B100000237B614FF0FF32BB6902FA03F3DA4323
:101B2000BB681A407B699A404FF0FF317B6901FA2C
:101B300003F3D9437B680B40134318462437BD4653
:101B400080BC704780B582B000AF78607868FFF7DE
:101B50004FFF00BF0837BD4680BD80B586B000AFDF
:101B60000346B9607A60FB7300237B61FFF764FF73
:101B700078617A68B9687869FFF7B2FF024697F929
:101B80000F3011461846FFF781FF00BF1837BD46DA
:101B900080BD80B582B000AF0346FB7197F9073076
:101BA0001846FFF757FF00BF0837BD4680BD00004D
:101BB00080B48BB000AF7860396000237B62002373
:101BC0003B6269E101227B6A02FA03F3FB613B6835
:101BD0001B68FA691340BB61BA69FB699A4240F01D
:101BE00058813B685B689A4A93425ED0984A934218
:101BF00075D8984A934258D0964A93426FD8964ADD
:101C0000934252D0944A934269D8944A93424CD01A
:101C1000924A934263D8924A934246D0904A934262
:101C20005DD8122B2AD8122B59D801A252F823F0D2
:101C3000AB1C0008851C0008971C0008D91C000874
:101C4000DF1C0008DF1C0008DF1C0008DF1C000888
:101C5000DF1C0008DF1C0008DF1C0008DF1C000878
:101C6000DF1C0008DF1C0008DF1C0008DF1C000868
:101C7000DF1C00088D1C0008A11C0008794A934253
:101C800013D02CE03B68DB683B6229E03B68DB68F3
:101C900004333B6224E03B68DB6808333B621FE0AF
:101CA0003B68DB680C333B621AE03B689B68002BA7
:101CB00002D104233B6213E03B689B68012B05D1F2
:101CC00008233B627B68FA691A6109E008233B62DA
:101CD0007B68FA695A6103E000233B6200E000BFC1
:101CE000BB69FF2B01D87B6801E07B6804337B6113
:101CF000BB69FF2B02D87B6A9B0002E07B6A083B32
:101D00009B003B617B691A680F213B6901FA03F371
:101D1000DB431A40396A3B6901FA03F31A437B69D2
:101D20001A603B685B6803F08053002B00F0B180C1
:101D30004D4B9B694C4A43F0010393614A4B9B69AD
:101D400003F00103BB60BB68484A7B6A9B0802330F
:101D500052F82330FB607B6A03F003039B000F22E1
:101D600002FA03F3DB43FA681340FB607B68404AE6
:101D7000934213D07B683F4A93420DD07B683E4A22
:101D8000934207D07B683D4A934201D1032306E08A
:101D9000042304E0022302E0012300E000237A6A26
:101DA00002F0030292009340FA681343FB602F494C
:101DB0007B6A9B080233FA6841F823203B685B6822
:101DC00003F48013002B06D02D4B9A682C49BB6975
:101DD00013438B6006E02A4B9A68BB69DB432849B2
:101DE00013408B603B685B6803F40013002B06D044
:101DF000234BDA682249BB691343CB6006E0204BD2
:101E0000DA68BB69DB431E491340CB603B685B6803
:101E100003F40033002B06D0194B5A681849BB69EC
:101E200013434B6006E0164B5A68BB69DB43144909
:101E300013404B603B685B6803F48033002B21D078
:101E40000F4B1A680E49BB6913430B6021E000BFBA
:101E5000000032100000311000002210000021109C
:101E6000000012100000111000100240000001409C
:101E700000080140000C0140001001400014014026
:101E8000000401400B4B1A68BB69DB43094913404E
:101E90000B607B6A01337B623B681A687B6A22FABB
:101EA00003F3002B7FF48EAE00BF00BF2C37BD467E
:101EB00080BC70470004014080B485B000AF7860FA
:101EC0000B467B807B689A687B881340002B02D08E
:101ED0000123FB7301E00023FB73FB7B18461437DF
:101EE000BD4680BC704780B483B000AF78600B46BD
:101EF0007B8013467B707B78002B03D07A887B68CD
:101F00001A6103E07B881A047B681A6100BF0C37F2
:101F1000BD4680BC7047000080B586B000AF7860D9
:101F20007B68002B01D101236CE27B681B6803F006
:101F30000103002B00F08780924B5B6803F00C03D9
:101F4000042B0CD08F4B5B6803F00C03082B12D1D1
:101F50008C4B5B6803F48033B3F5803F0BD1894B26
:101F60001B6803F40033002B6CD07B685B68002B8C
:101F700068D1012346E27B685B68B3F5803F06D1F8
:101F8000804B1B687F4A43F4803313602EE07B68EC
:101F90005B68002B0CD17B4B1B687A4A23F480339F
:101FA0001360784B1B68774A23F4802313601DE08D
:101FB0007B685B68B3F5A02F0CD1724B1B68714A2C
:101FC00043F4802313606F4B1B686E4A43F48033E5
:101FD00013600BE06B4B1B686A4A23F48033136079
:101FE000684B1B68674A23F4802313607B685B6837
:101FF000002B13D0FFF7CEFC386108E0FFF7CAFCD6
:1020000002463B69D31A642B01D90323FAE15D4BE5
:102010001B6803F40033002BF0D014E0FFF7BAFC88
:10202000386108E0FFF7B6FC02463B69D31A642B1F
:1020300001D90323E6E1534B1B6803F40033002B63
:10204000F0D100E000BF7B681B6803F00203002BA7
:1020500063D04C4B5B6803F00C03002B0BD0494B57
:102060005B6803F00C03082B1CD1464B5B6803F440
:102070008033002B16D1434B1B6803F00203002B67
:1020800005D07B681B69012B01D00123BAE13D4BD0
:102090001B6823F0F8027B685B69DB003949134356
:1020A0000B603AE07B681B69002B20D0364B012285
:1020B0001A60FFF76FFC386108E0FFF76BFC02461F
:1020C0003B69D31A022B01D903239BE12D4B1B68DB
:1020D00003F00203002BF0D02A4B1B6823F0F80218
:1020E0007B685B69DB00274913430B6015E0264BD7
:1020F00000221A60FFF74EFC386108E0FFF74AFC47
:1021000002463B69D31A022B01D903237AE11D4B06
:102110001B6803F00203002BF0D17B681B6803F0FF
:102120000803002B3AD07B689B69002B19D0174B12
:1021300001221A60FFF72EFC386108E0FFF72AFC45
:1021400002463B69D31A022B01D903235AE10D4BF6
:102150005B6A03F00203002BF0D0012000F0FCFAD0
:102160001CE00A4B00221A60FFF714FC38610FE0F4
:10217000FFF710FC02463B69D31A022B08D9032350
:1021800040E100BF00100240000042428004424291
:102190009E4B5B6A03F00203002BE9D17B681B684E
:1021A00003F00403002B00F0A6800023FB75974B7F
:1021B000DB6903F08053002B0DD1944BDB69934A0C
:1021C00043F08053D361914BDB6903F08053BB60D4
:1021D000BB680123FB758E4B1B6803F48073002BD7
:1021E00018D18B4B1B688A4A43F480731360FFF746
:1021F000D1FB386108E0FFF7CDFB02463B69D31AFB
:10220000642B01D90323FDE0814B1B6803F4807329
:10221000002BF0D07B68DB68012B06D17B4B1B6A5F
:102220007A4A43F0010313622DE07B68DB68002BE0
:102230000CD1764B1B6A754A23F001031362734B72
:102240001B6A724A23F0040313621CE07B68DB689C
:10225000052B0CD16D4B1B6A6C4A43F004031362CF
:102260006A4B1B6A694A43F0010313620BE0674B38
:102270001B6A664A23F001031362644B1B6A634ABC
:1022800023F0040313627B68DB68002B15D0FFF793
:1022900081FB38610AE0FFF77DFB02463B69D31AF8
:1022A00041F28832934201D90323ABE0574B1B6ABA
:1022B00003F00203002BEED014E0FFF76BFB386154
:1022C0000AE0FFF767FB02463B69D31A41F2883206
:1022D000934201D9032395E04C4B1B6A03F00203A0
:1022E000002BEED1FB7D012B05D1484BDB69474A22
:1022F00023F08053D3617B68DB69002B00F0818081
:10230000424B5B6803F00C03082B61D07B68DB69F0
:10231000022B46D13F4B00221A60FFF73BFB38618E
:1023200008E0FFF737FB02463B69D31A022B01D9BD
:10233000032367E0354B1B6803F00073002BF0D1DB
:102340007B681B6AB3F5803F08D1304B5B6823F490
:1023500000327B689B682D4913434B602B4B5B68B5
:1023600023F474127B68196A7B685B6A0B43274904
:1023700013434B60274B01221A60FFF70BFB3861B8
:1023800008E0FFF707FB02463B69D31A022B01D98D
:10239000032337E01D4B1B6803F00073002BF0D0C4
:1023A0002FE01C4B00221A60FFF7F4FA386108E0B6
:1023B000FFF7F0FA02463B69D31A022B01D9032337
:1023C00020E0124B1B6803F00073002BF0D118E0E3
:1023D0007B68DB69012B01D1012313E00B4B5B68A8
:1023E000FB60FB6803F480327B681B6A9A4206D16B
:1023F000FB6803F470127B685B6A9A4201D0012388
:1024000000E0002318461837BD4680BD001002408A
:10241000007000406000424280B584B000AF786038
:1024200039607B68002B01D10123D0E06A4B1B6827
:1024300003F007033A689A4210D9674B1B6823F0F0
:10244000070265493B6813430B60634B1B6803F04D
:1024500007033A689A4201D00123B8E07B681B6801
:1024600003F00203002B20D07B681B6803F00403F9
:10247000002B05D0594B5B68584A43F4E063536026
:102480007B681B6803F00803002B05D0534B5B6887
:10249000524A43F460535360504B5B6823F0F002A0
:1024A0007B689B684D4913434B607B681B6803F056
:1024B0000103002B40D07B685B68012B07D1474BA1
:1024C0001B6803F40033002B15D101237FE07B68E8
:1024D0005B68022B07D1414B1B6803F00073002B94
:1024E00009D1012373E03D4B1B6803F00203002B6D
:1024F00001D101236BE0394B5B6823F003027B6859
:102500005B68364913434B60FFF744FAF8600AE012
:10251000FFF740FA0246FB68D31A41F28832934231
:1025200001D9032353E02D4B5B6803F00C027B6859
:102530005B689B009A42EBD1274B1B6803F00703B3
:102540003A689A4210D2244B1B6823F007022249B2
:102550003B6813430B60204B1B6803F007033A688A
:102560009A4201D0012332E07B681B6803F0040328
:10257000002B08D0194B5B6823F4E0627B68DB68B2
:10258000164913434B607B681B6803F00803002B5C
:1025900009D0124B5B6823F460527B681B69DB0037
:1025A0000E4913434B6000F021F802460B4B5B6869
:1025B0001B0903F00F030A49CB5C22FA03F3094A13
:1025C0001360094B1B681846FFF7D2F80023184622
:1025D0001037BD4680BD00BF002002400010024001
:1025E0005C460008080000200C00002080B487B082
:1025F00000AF0023FB600023BB6000237B6100234E
:102600007B6000233B611E4B5B68FB60FB6803F053
:102610000C03042B02D0082B03D027E0194B3B619D
:1026200027E0FB689B0C03F00F03174AD35C7B6029
:10263000FB6803F48033002B10D0114B5B685B0CFC
:1026400003F00103114AD35CBB607B680D4A02FBB7
:1026500003F2BB68B2FBF3F37B6104E07B680C4AD6
:1026600002FB03F37B617B693B6102E0054B3B614D
:1026700000BF3B6918461C37BD4680BC704700BF91
:102680000010024000127A007446000884460008D8
:1026900000093D0080B400AF024B1B681846BD46E0
:1026A00080BC70470800002080B500AFFFF7F2FF44
:1026B0000246054B5B681B0A03F007030349CB5C2A
:1026C00022FA03F3184680BD001002406C46000851
:1026D00080B500AFFFF7DEFF0246054B5B68DB0A03
:1026E00003F007030349CB5C22FA03F3184680BDCD
:1026F000001002406C46000880B483B000AF7860E0
:1027000039607B680F221A60114B5B6803F003028B
:102710007B685A600E4B5B6803F0F0027B689A603E
:102720000B4B5B6803F4E0627B68DA60084B5B6824
:10273000DB0803F4E0627B681A61064B1B6803F058
:1027400007023B681A6000BF0C37BD4680BC70476B
:10275000001002400020024080B485B000AF7860D5
:102760000A4B1B680A4AA2FB03235B0A7A6802FB36
:1027700003F3FB6000BFFB685A1EFA60002BF9D11F
:1027800000BF00BF1437BD4680BC70470800002062
:10279000D34D621080B582B000AF78607B68002BAB
:1027A00001D1012376E07B685B6A002B08D17B684E
:1027B0005B68B3F5827F09D07B680022DA6105E0AF
:1027C0007B6800221A617B6800225A617B680022C4
:1027D0009A627B6893F85130DBB2002B06D17B689C
:1027E000002283F850207868FEF7D2FE7B68022230
:1027F00083F851207B681B681A687B681B6822F08D
:1028000040021A607B685B6803F482727B689B6895
:1028100003F404431A437B68DB6803F400631A4340
:102820007B681B6903F002031A437B685B6903F052
:1028300001031A437B689B6903F400731A437B68A6
:10284000DB6903F038031A437B681B6A03F08003DB
:1028500042EA03017B689B6A03F400527B681B68B1
:102860000A431A607B689B691A0C7B681B6802F03C
:1028700004025A607B681B68DA697B681B6822F473
:102880000062DA617B6800225A657B68012283F866
:102890005120002318460837BD4680BD80B588B05A
:1028A00000AFF860B9603B601346FB80FFF772F839
:1028B000F861FB887B83FB6893F85130DBB2012B16
:1028C00001D002232AE1BB68002B02D0FB88002B39
:1028D00001D1012322E1FB6893F85030012B01D193
:1028E00002231BE1FB68012283F85020FB680322CE
:1028F00083F85120FB6800225A65FB68BA681A63A6
:10290000FB68FA889A86FB68FA88DA86FB680022F8
:102910009A63FB6800229A87FB680022DA87FB68CB
:1029200000225A64FB6800221A64FB689B68B3F5B6
:10293000004F0FD1FB681B681A68FB681B6822F008
:1029400040021A60FB681B681A68FB681B6842F447
:1029500080421A60FB681B681B6803F04003402B31
:1029600007D0FB681B681A68FB681B6842F04002CE
:102970001A60FB68DB68B3F5006F52D1FB685B68D7
:10298000002B02D07B8B012B45D1FB681B6B1A8877
:10299000FB681B68DA60FB681B6B9A1CFB681A6398
:1029A000FB68DB8E9BB2013B9AB2FB68DA8632E0B1
:1029B000FB681B689B6803F00203022B12D1FB68C3
:1029C0001B6B1A88FB681B68DA60FB681B6B9A1C20
:1029D000FB681A63FB68DB8E9BB2013B9AB2FB6813
:1029E000DA8618E0FEF7D6FF0246FB69D31A3A688A
:1029F0009A4203D83B68B3F1FF3F02D13B68002BFA
:102A000009D1FB68012283F85120FB68002283F87A
:102A10005020032382E0FB68DB8E9BB2002BC7D1E2
:102A200053E0FB685B68002B02D07B8B012B47D106
:102A3000FB681A6BFB681B680C3312781A70FB6812
:102A40001B6B5A1CFB681A63FB68DB8E9BB2013B55
:102A50009AB2FB68DA8633E0FB681B689B6803F078
:102A60000203022B13D1FB681A6BFB681B680C3343
:102A700012781A70FB681B6B5A1CFB681A63FB68A0
:102A8000DB8E9BB2013B9AB2FB68DA8618E0FEF758
:102A900081FF0246FB69D31A3A689A4203D83B6821
:102AA000B3F1FF3F02D13B68002B09D1FB68012243
:102AB00083F85120FB68002283F8502003232DE087
:102AC000FB68DB8E9BB2002BC6D1FA693968F868C7
:102AD00000F066FA0346002B02D0FB6820225A65FC
:102AE000FB689B68002B0AD100237B61FB681B6895
:102AF000DB687B61FB681B689B687B617B69FB68AB
:102B0000012283F85120FB68002283F85020FB68E3
:102B10005B6D002B01D0012300E000231846203715
:102B2000BD4680BD80B58AB000AFF860B9607A60FC
:102B30007B8001237B62FEF72DFF3862FB6893F8F0
:102B40005130FB77FB685B68BB617B88FB82FB7F56
:102B5000012B0CD0BB69B3F5827F06D1FB689B6863
:102B6000002B02D1FB7F042B01D002237FE1BB6845
:102B7000002B05D07B68002B02D07B88002B01D175
:102B8000012374E1FB6893F85030012B01D102233B
:102B90006DE1FB68012283F85020FB6893F8513007
:102BA000DBB2042B03D0FB68052283F85120FB68BD
:102BB00000225A65FB687A689A63FB687A88DA872C
:102BC000FB687A889A87FB68BA681A63FB687A8818
:102BD000DA86FB687A889A86FB6800221A64FB68AA
:102BE00000225A64FB681B681B6803F04003402BFB
:102BF00007D0FB681B681A68FB681B6842F040023C
:102C00001A60FB68DB68B3F5006F7ED1FB685B6818
:102C1000002B02D0FB8A012B6CD1FB681B6B1A883E
:102C2000FB681B68DA60FB681B6B9A1CFB681A6305
:102C3000FB68DB8E9BB2013B9AB2FB68DA8659E0F7
:102C4000FB681B689B6803F00203022B1BD1FB6827
:102C5000DB8E9BB2002B16D07B6A012B13D1FB6855
:102C60001B6B1A88FB681B68DA60FB681B6B9A1C7D
:102C7000FB681A63FB68DB8E9BB2013B9AB2FB6870
:102C8000DA8600237B62FB681B689B6803F0010304
:102C9000012B19D1FB68DB8F9BB2002B14D0FB6892
:102CA0001B68DA68FB689B6B92B21A80FB689B6BAF
:102CB0009A1CFB689A63FB68DB8F9BB2013B9AB25C
:102CC000FB68DA8701237B62FEF764FE02463B6AFB
:102CD000D31A3A6B9A420DD83B6BB3F1FF3F09D040
:102CE000FB68012283F85120FB68002283F8502002
:102CF0000323BCE0FB68DB8E9BB2002BA0D1FB68FA
:102D0000DB8F9BB2002B9BD182E0FB685B68002BC2
:102D100002D0FB8A012B71D1FB681A6BFB681B6820
:102D20000C3312781A70FB681B6B5A1CFB681A6311
:102D3000FB68DB8E9BB2013B9AB2FB68DA865DE0F2
:102D4000FB681B689B6803F00203022B1CD1FB6825
:102D5000DB8E9BB2002B17D07B6A012B14D1FB6852
:102D60001A6BFB681B680C3312781A70FB681B6BBC
:102D70005A1CFB681A63FB68DB8E9BB2013B9AB25C
:102D8000FB68DA8600237B62FB681B689B6803F0A4
:102D90000103012B19D1FB68DB8F9BB2002B14D0F0
:102DA000FB681B68DA68FB689B6BD2B21A70FB6821
:102DB0009B6B5A1CFB689A63FB68DB8F9BB2013BE1
:102DC0009AB2FB68DA8701237B62FEF7E3FD0246D5
:102DD0003B6AD31A3A6B9A4203D83B6BB3F1FF3F7D
:102DE00002D13B6B002B09D1FB68012283F85120F3
:102DF000FB68002283F85020032338E0FB68DB8E59
:102E00009BB2002B9CD1FB68DB8F9BB2002B97D130
:102E10003A6A396BF86800F0C3F80346002B08D013
:102E2000FB6820225A65FB68002283F850200123AA
:102E30001DE0FB689B68002B0AD100233B61FB6807
:102E40001B68DB683B61FB681B689B683B613B69F7
:102E5000FB68012283F85120FB68002283F8502090
:102E6000FB685B6D002B01D0012300E000231846B6
:102E70002837BD4680BD80B483B000AF78607B68E2
:102E800093F85130DBB218460C37BD4680BC704712
:102E900080B588B000AFF860B9603B601346FB7145
:102EA000FEF778FD0246BB6A9B1A3A681344FB6141
:102EB000FEF770FDB861394B1B685B011B0DFA69A9
:102EC00002FB03F37B6154E03B68B3F1FF3F50D05A
:102ED000FEF760FD0246BB69D31AFA699A4202D92D
:102EE000FB69002B3DD1FB681B685A68FB681B68B7
:102EF00022F0E0025A60FB685B68B3F5827F11D173
:102F0000FB689B68B3F5004F04D0FB689B68B3F582
:102F1000806F07D1FB681B681A68FB681B6822F08A
:102F200040021A60FB689B6AB3F5005F0FD1FB6833
:102F30001B681A68FB681B6822F400521A60FB6861
:102F40001B681A68FB681B6842F400521A60FB6831
:102F5000012283F85120FB68002283F850200323CC
:102F600017E07B69002B01D10023FB617B69013BEA
:102F70007B61FB681B689A68BB681340BA689A4219
:102F80000CBF01230023DBB21A46FB799A429BD186
:102F9000002318462037BD4680BD00BF0800002032
:102FA00080B586B002AFF860B9607A607B68009344
:102FB000BB6801220221F868FFF76AFF0346002B75
:102FC00007D0FB685B6D43F02002FB685A65032362
:102FD00013E07B680093BB6800228021F868FFF74C
:102FE00057FF0346002B07D0FB685B6D43F02002C0
:102FF000FB685A65032300E0002318461037BD46DE
:1030000080BD80B582B000AF78607B68002B01D1B5
:10301000012341E07B6893F83D30DBB2002B06D101
:103020007B68002283F83C207868FEF7FBFA7B6817
:10303000022283F83D207B681A687B6804331946B6
:10304000104600F05BFA7B68012283F846207B681B
:10305000012283F83E207B68012283F83F207B68B1
:10306000012283F840207B68012283F841207B689D
:10307000012283F842207B68012283F843207B6889
:10308000012283F844207B68012283F845207B6875
:10309000012283F83D20002318460837BD4680BD35
:1030A00080B485B000AF78607B6893F83D30DBB2C8
:1030B000012B01D001233AE07B68022283F83D20F6
:1030C0007B681B68DA687B681B6842F00102DA6083
:1030D0007B681B68184A93420ED07B681B68B3F16B
:1030E000804F09D07B681B68144A934204D07B68E8
:1030F0001B68134A934211D17B681B689B6803F0DD
:103100000703FB60FB68062B10D07B681B681A68FE
:103110007B681B6842F001021A6007E07B681B684D
:103120001A687B681B6842F001021A600023184687
:103130001437BD4680BC7047002C0140000400409D
:103140000008004080B584B000AF78607B681B68E1
:10315000DB68FB607B681B681B69BB60BB6803F0B6
:103160000203002B20D0FB6803F00203002B1BD0CE
:103170007B681B686FF002021A617B6801221A7774
:103180007B681B689B6903F00303002B03D07868FE
:1031900000F098F905E0786800F08BF9786800F0A5
:1031A0009AF97B6800221A77BB6803F00403002BAE
:1031B00020D0FB6803F00403002B1BD07B681B6846
:1031C0006FF004021A617B6802221A777B681B6821
:1031D0009B6903F44073002B03D0786800F072F908
:1031E00005E0786800F065F9786800F074F97B68AC
:1031F00000221A77BB6803F00803002B20D0FB687D
:1032000003F00803002B1BD07B681B686FF00802DB
:103210001A617B6804221A777B681B68DB6903F0FC
:103220000303002B03D0786800F04CF905E07868C0
:1032300000F03FF9786800F04EF97B6800221A77B9
:10324000BB6803F01003002B20D0FB6803F01003D1
:10325000002B1BD07B681B686FF010021A617B6823
:1032600008221A777B681B68DB6903F44073002B24
:1032700003D0786800F026F905E0786800F019F9C5
:10328000786800F028F97B6800221A77BB6803F0A1
:103290000103002B0CD0FB6803F00103002B07D0C7
:1032A0007B681B686FF001021A617868FEF726F9E7
:1032B000BB6803F08003002B0CD0FB6803F0800395
:1032C000002B07D07B681B686FF080021A6178685A
:1032D00000F07FFABB6803F04003002B0CD0FB68C2
:1032E00003F04003002B07D07B681B686FF040029F
:1032F0001A61786800F0F8F8BB6803F02003002B2F
:103300000CD0FB6803F02003002B07D07B681B6800
:103310006FF020021A61786800F052FA00BF10378F
:10332000BD4680BD80B584B000AF786039600023B1
:10333000FB737B6893F83C30012B01D10223B4E08E
:103340007B68012283F83C207B68022283F83D20C1
:103350007B681B689B68BB60BB6823F07703BB601E
:10336000BB6823F47F43BB607B681B68BA689A60C4
:103370003B681B68B3F5005F3ED0B3F5005F00F219
:103380008780B3F5805F00F08680B3F5805F7FD8DB
:10339000702B1AD0702B7BD8602B50D0602B77D835
:1033A000502B3CD0502B73D8402B58D0402B6FD88B
:1033B000302B64D0302B6BD8202B60D0202B67D8DB
:1033C000002B5CD0102B5AD062E07B6818683B68F9
:1033D00099683B685A683B68DB6800F074F97B6861
:1033E0001B689B68BB60BB6843F07703BB607B686E
:1033F0001B68BA689A604FE07B6818683B689968F8
:103400003B685A683B68DB6800F05DF97B681B68C5
:103410009A687B681B6842F480429A603CE07B6853
:1034200018683B6859683B68DB681A4600F0D4F8B6
:103430007B681B685021184600F02BF92CE07B6854
:1034400018683B6859683B68DB681A4600F0F2F878
:103450007B681B686021184600F01BF91CE07B6844
:1034600018683B6859683B68DB681A4600F0B4F896
:103470007B681B684021184600F00BF90CE07B6864
:103480001A683B681B681946104600F002F903E011
:103490000123FB7300E000BF7B68012283F83D201D
:1034A0007B68002283F83C20FB7B18461037BD4622
:1034B00080BD80B483B000AF786000BF0C37BD46DC
:1034C00080BC704780B483B000AF786000BF0C3719
:1034D000BD4680BC704780B483B000AF786000BF49
:1034E0000C37BD4680BC704780B483B000AF7860B5
:1034F00000BF0C37BD4680BC7047000080B485B06B
:1035000000AF786039607B681B68FB607B682F4A7E
:1035100093420BD07B68B3F1804F07D07B682C4A75
:10352000934203D07B682B4A934208D1FB6823F077
:103530007003FB603B685B68FA681343FB607B6861
:10354000224A93420BD07B68B3F1804F07D07B684F
:103550001F4A934203D07B681E4A934208D1FB68FE
:1035600023F44073FB603B68DB68FA681343FB603D
:10357000FB6823F080023B685B691343FB607B6858
:10358000FA681A603B689A687B68DA623B681A6876
:103590007B689A627B680D4A934203D13B681A6943
:1035A0007B681A637B6801225A617B681B6903F0A0
:1035B0000103002B05D07B681B6923F001027B68A7
:1035C0001A6100BF1437BD4680BC7047002C014013
:1035D000000400400008004080B487B000AFF860ED
:1035E000B9607A60FB681B6A7B61FB681B6A23F029
:1035F0000102FB681A62FB689B693B613B6923F02F
:10360000F0033B617B681B013A6913433B617B69B3
:1036100023F00A037B617A69BB6813437B61FB6813
:103620003A699A61FB687A691A6200BF1C37BD4625
:1036300080BC704780B487B000AFF860B9607A6032
:10364000FB681B6A7B61FB681B6A23F01002FB6846
:103650001A62FB689B693B613B6923F470433B61E1
:103660007B681B033A6913433B617B6923F0A0032A
:103670007B61BB681B017A6913437B61FB683A6914
:103680009A61FB687A691A6200BF1C37BD4680BC2C
:10369000704780B485B000AF786039607B689B6804
:1036A000FB60FB6823F07003FB603A68FB68134320
:1036B00043F00703FB607B68FA689A6000BF143729
:1036C000BD4680BC704780B487B000AFF860B96079
:1036D0007A603B60FB689B687B617B6923F47F4376
:1036E0007B613B681A027B681A43BB6813437A69A3
:1036F00013437B61FB687A699A6000BF1C37BD4643
:1037000080BC704780B485B000AF786039607B685A
:1037100093F83C30012B01D1022346E07B68012263
:1037200083F83C207B68022283F83D207B681B687D
:103730005B68FB607B681B689B68BB60FB6823F071
:103740007003FB603B681B68FA681343FB607B688F
:103750001B68FA685A607B681B68164A93420ED051
:103760007B681B68B3F1804F09D07B681B68124AE5
:10377000934204D07B681B68104A93420CD1BB680B
:1037800023F08003BB603B685B68BA681343BB608F
:103790007B681B68BA689A607B68012283F83D20C9
:1037A0007B68002283F83C20002318461437BD466E
:1037B00080BC7047002C014000040040000800401D
:1037C00080B483B000AF786000BF0C37BD4680BCCA
:1037D000704780B483B000AF786000BF0C37BD463F
:1037E00080BC704780B582B000AF78607B68002BEA
:1037F00001D1012342E07B6893F84130DBB2002B1A
:1038000006D17B68002283F840207868FDF728FF06
:103810007B68242283F841207B681B68DA687B6818
:103820001B6822F40052DA60786800F071F97B6856
:103830001B681A697B681B6822F490421A617B68D6
:103840001B685A697B681B6822F02A025A617B68F0
:103850001B68DA687B681B6842F40052DA607B6898
:1038600000225A647B68202283F841207B68202252
:1038700083F842207B6800225A63002318460837E9
:10388000BD4680BD80B58AB002AFF860B9603B60CC
:103890001346FB8000237B61FB6893F84130DBB269
:1038A000202B75D1BB68002B02D0FB88002B01D1E7
:1038B00001236EE0FB6800225A64FB68212283F832
:1038C0004120FEF767F87861FB68FA889A84FB6804
:1038D000FA88DA84FB689B68B3F5805F08D1FB68DF
:1038E0001B69002B04D10023FB61BB68BB6103E0B3
:1038F000BB68FB610023BB612EE03B6800937B69E2
:1039000000228021F86800F048F80346002B05D01B
:10391000FB68202283F8412003233AE0FB69002B57
:103920000BD1BB691B881A46FB681B68C2F30802EF
:103930005A60BB690233BB6107E0FB691A78FB6818
:103940001B685A60FB690133FB61FB68DB8C9BB22F
:10395000013B9AB2FB68DA84FB68DB8C9BB2002BDC
:10396000CBD13B6800937B6900224021F86800F0CE
:1039700014F80346002B05D0FB68202283F8412071
:10398000032306E0FB68202283F84120002300E0A7
:10399000022318462037BD4680BD80B586B000AFF3
:1039A000F860B9603B601346FB713BE03B6AB3F1E2
:1039B000FF3F37D0FDF7EEFF02463B68D31A3A6A65
:1039C0009A4202D33B6A002B01D103233AE0FB6801
:1039D0001B68DB6803F00403002B23D0BB68802B3B
:1039E00020D0BB68402B1DD0FB681B681B6803F010
:1039F0000803082B16D100237B61FB681B681B683A
:103A00007B61FB681B685B687B617B69F86800F021
:103A10001DF8FB6808225A64FB68002283F84020E6
:103A200001230FE0FB681B681A68BB681340BA6883
:103A30009A420CBF01230023DBB21A46FB799A425B
:103A4000B4D0002318461837BD4680BD80B495B069
:103A500000AF78607B681B680C337B637B6B53E83B
:103A6000003F3B633B6B23F49073FB647B681B68F4
:103A70000C33FA6C3A64FB63F96B3A6C41E800234F
:103A8000BB63BB6B002BE5D17B681B6814333B62C7
:103A90003B6A53E8003FFB61FB6923F00103BB6411
:103AA0007B681B681433BA6CFA62BB62B96AFA6A43
:103AB00041E800237B627B6A002BE5D17B681B6BAE
:103AC000012B19D17B681B680C33FB60FB6853E842
:103AD000003FBB60BB6823F010037B647B681B68FE
:103AE0000C337A6CBA617B617969BA6941E8002369
:103AF0003B613B69002BE5D17B68202283F84220A3
:103B00007B6800221A6300BF5437BD4680BC7047F3
:103B100080B584B000AF78607B681B681B6923F4B4
:103B200040517B68DA687B681B680A431A617B68CE
:103B30009A687B681B691A437B685B691343BB60A7
:103B40007B681B68DB6823F4B05323F00C037A68AE
:103B50001268B9680B43D3607B681B685B6923F408
:103B600040717B689A697B681B680A435A617B686D
:103B70001B682C4A934203D1FEF7AAFDF86002E0CD
:103B8000FEF792FDF860FA6813469B0013449A0012
:103B90001A447B685B689B00B2FBF3F3224AA2FBEA
:103BA00003235B091901FA6813469B0013449A002A
:103BB0001A447B685B689B00B2FBF3F21A4BA3FBD1
:103BC00002035B09642000FB03F3D31A1B013233A9
:103BD000154AA2FB03235B0903F0F0031944FA68BA
:103BE00013469B0013449A001A447B685B689B0051
:103BF000B2FBF3F20C4BA3FB02035B09642000FB56
:103C000003F3D31A1B013233074AA2FB03235B09D8
:103C100003F00F027B681B680A449A6000BF1037EC
:103C2000BD4680BD003801401F85EB51014B18682F
:103C3000704700BF1400002070B500260C4D0D4CDD
:103C4000641BA410A64209D100F076FC00260A4DA0
:103C50000A4C641BA410A64205D170BD55F8043B64
:103C600098470136EEE755F8043B98470136F2E7EE
:103C7000C4460008C4460008C4460008C8460008F8
:103C80000A44914200F1FF3300D1704710B511F89A
:103C9000014B914203F8014FF9D110BD0346024494
:103CA000934200D1704703F8011BF9E730B5141EA9
:103CB00005469BB0184605DA8B234FF0FF302B608A
:103CC0001BB030BD4FF40273ADF80C300CBF23466F
:103CD00004F1FF33029305934FF6FF730246009100
:103CE0000491ADF80E3069461E9B284600F074F82A
:103CF000431CBCBF8B232B60002CE1D00022009B17
:103D00001A70DDE707B5009313460A4601460348DB
:103D10000068FFF7CBFF03B05DF804FB1400002040
:103D20002DE9F0478E6882469E420C4690461F461B
:103D300038D88A8912F4906F32D025680969013326
:103D4000A5EB010965694B4405EB450505EBD57508
:103D50006D109D4238BF1D46530531D5294600F0F0
:103D600045FB064650B90C234FF0FF30CAF800302F
:103D7000A38943F04003A381BDE8F0874A46216947
:103D8000FFF77EFFA38923F4906343F08003A381B0
:103D900026614E4426603E466561A5EB0905A56097
:103DA000BE4200D93E4632464146206800F0B8FA8D
:103DB000A36822689B1B32440020A3602260DBE7DB
:103DC0002A4600F06DFB06460028E1D150462169E5
:103DD00000F0C0FAC7E700002DE9F04F98468B8944
:103DE00007461B060D4614469DB00ED50B6963B9F8
:103DF000402100F0FBFA2860286120B90C233B60C9
:103E00004FF0FF30D1E040236B6100230993202362
:103E10008DF8293030234FF00109CDF80C80DFF800
:103E2000A4818DF82A3023469A4613F8012B0AB153
:103E3000252AF9D1BAEB040B0BD05B462246294662
:103E40003846FFF76DFF013000F0AA80099A5A4406
:103E500009929AF80030002B00F0A28000234FF066
:103E6000FF32CDE905230AF1010A049307938DF887
:103E700053301A935446052214F8011B514800F0A0
:103E800041FA049AD8B9D00644BF20238DF85330A4
:103E9000110744BF2B238DF853309AF800302A2B9A
:103EA00015D0544600204FF00A0C079A214611F80D
:103EB000013B303B092B4ED9B0B1079214E0A0EB87
:103EC000080309FA03F31343A2460493D2E7039BC2
:103ED000191D1B680391002BBBBF5B4242F002021D
:103EE00007930793B8BF049223782E2B0CD16378E5
:103EF0002A2B35D1039B02341A1D1B680392002B19
:103F0000B8BF4FF0FF330593DFF8C8A00322504637
:103F1000217800F0F7F940B14023A0EB0A0003FA42
:103F200000F0049B01340343049314F8011B0622A0
:103F300025488DF8281000F0E5F9002838D0234BEB
:103F40001BBB039B073323F0070308330393099B31
:103F50003344099367E70C4601200CFB0232A5E7C6
:103F600000234FF00A0C194601340593204610F83F
:103F7000012B303A092A03D9002BC5D00591C3E79C
:103F8000044601230CFB0121F0E703AB00932A4612
:103F900038460F4B04A9AFF30080421C0646D6D129
:103FA000AB895B063FF52CAF09981DB0BDE8F08FDB
:103FB00003AB00932A463846054B04A900F07CF871
:103FC000EBE700BF864600089046000800000000AE
:103FD000213D00088C4600082DE9F0471646994619
:103FE0008A680B6907469342B8BF1346336091F85D
:103FF00043200C46DDF820800AB10133336023688A
:10400000990642BF336802333360256815F0060510
:1040100006D104F1190AE36832689B1AAB4228DC26
:1040200094F84320131E226818BF012392062DD452
:104030004946384604F14302C047013020D0236886
:10404000E56803F00603042B18BF002532684FF023
:104050000006A36808BFAD1A226908BF25EAE57506
:104060009342C4BF9B1AED181A34B5421AD10020EE
:1040700008E00123524649463846C047013003D183
:104080004FF0FF30BDE8F0870135C4E73020E1187C
:1040900081F843005A1C94F845102244023382F8F8
:1040A0004310C5E70123224649463846C047013040
:1040B000E6D00136D9E700002DE9FF470C46277E00
:1040C0009146782F80469A460C9904F1430207D80E
:1040D000622F0AD8002F00F0D980582F00F0A4805A
:1040E00004F1420684F842703AE0A7F16303152B0D
:1040F000F6D801A050F823F05141000865410008AE
:10410000E1400008E1400008E1400008E14000080B
:1041100065410008E1400008E1400008E140000876
:10412000E14000087342000895410008554200082C
:10413000E1400008E140000895420008E140000825
:1041400095410008E1400008E14000085D42000898
:104150000B6804F142061A1D1B680A6084F842309D
:104160000123A4E0256808682E0600F104030AD59F
:1041700005680B60002D03DA2D236D4284F843306F
:104180000A235E4819E015F0400F05680B6018BF60
:104190002DB2EFE70B682568181D0860280601D5C9
:1041A0001D6802E06906FBD51D886F2F0CBF082330
:1041B0000A235248002184F843106668002EA8BFE5
:1041C0002168A660A4BF21F0040121600DB9002E72
:1041D0004DD01646B5FBF3F103FB1157C75D06F84A
:1041E000017D2F46BB420D46F4D9082B0BD1236825
:1041F000DF0708D5236961689942DEBF302306F8DE
:10420000013C06F1FF36921B22614B462146404697
:10421000CDF800A003AAFFF7DFFE01304CD14FF02C
:10422000FF3004B0BDE8F087344884F845700E686C
:10423000236856F8045B1F060E6014D5D90744BFE7
:1042400043F0200323601DB9236823F0200323607B
:104250001023AFE7236843F0200323607823284826
:1042600084F84530E3E75E0648BFADB2E6E71646A0
:10427000BBE70B6826681D1D60690D6035061B686D
:1042800001D5186002E07106FBD5188000231646A0
:104290002361BAE70B681A1D0A601E6800213046C8
:1042A000626800F02FF808B1801B606063682361CA
:1042B000002384F84330A8E7324649464046236944
:1042C000D0470130ABD023689B0713D4E068039B31
:1042D0009842B8BF1846A4E70123324649464046F3
:1042E000D04701309BD00135E36803995B1AAB429C
:1042F000F2DCEBE7002504F11906F5E79746000824
:10430000A8460008034610B5C9B2024493421846B5
:1043100001D1002003E0047801338C42F6D110BDB6
:10432000884210B501EB020402D98442234607D823
:10433000431EA14208D011F8012B03F8012FF8E722
:10434000014602448A4200D110BD13F8014D02F823
:10435000014DF7E738B50546002943D051F8043C34
:104360000C1F002BB8BFE41800F0D0F81E4A1368E9
:10437000104633B9636014602846BDE8384000F049
:10438000CBB8A3420AD921686218934201BF1A68C8
:104390005B685218226063600460EDE71A465B6850
:1043A0000BB1A342FAD911685018A0420BD1206872
:1043B0000144501883421160DED118685B680144E3
:1043C00011605360D8E702D90C232B60D4E7206832
:1043D00021188B4201BF19685B680918216063606E
:1043E0005460C9E738BD00BFE8000020F8B5CD1C17
:1043F00025F0030508350C2D38BF0C25002D064689
:1044000001DBA94203D90C2333600020F8BD00F082
:104410007DF821490A6814469CB9204F3B6823B9AE
:104420002146304600F062F838602946304600F0F8
:104430005DF8431C23D10C233046336000F06CF848
:10444000E3E723685B1B17D40B2B03D923601C44C1
:10445000256004E06368A2420CBF0B6053603046E5
:1044600000F05AF804F10B00231D20F00700C21AD7
:10447000CCD01B1AA350C9E722466468CCE7C41C01
:1044800024F00304A042E3D0211A304600F02EF8B5
:104490000130DDD1CFE700BFE8000020EC000020B4
:1044A000F8B5074614460E4621B91146BDE8F84056
:1044B000FFF79CBF22B9FFF74DFF25462846F8BD00
:1044C00000F030F8A0420FD221463846FFF78EFFA9
:1044D00005460028F2D031462246FFF7D1FB31468F
:1044E0003846FFF737FFE9E73546E7E738B50023F9
:1044F000054D044608462B60FDF7C2F9431C02D166
:104500002B6803B1236038BDA0030020014800F0F0
:1045100011B800BFA8030020014800F00CB800BF8C
:10452000A803002051F8043C181F002BBCBF0B58F7
:10453000C018704770477047F8B500BFF8BC08BC9A
:104540009E467047F8B500BFF8BC08BC9E46704751
:104550005B54585D20456E7472792054583A20257A
:10456000640A00005B54585D205458204845583A6E
:104570002000000025303258200000000A00000012
:104580005B54585D205472616E736D69743A2025D6
:10459000640A00005B52585D20456E7472792052A7
:1045A000583A2025640A00005B52585D20436F6E24
:1045B00074656E743A200000446576696365202551
:1045C00030325820616C726561647920636F6E6E61
:1045D00065637465640A0000416464656420646511
:1045E0007620253032580A004465766963652025B7
:1045F000303258204F46464C494E450A00000000D4
:10460000436F6E6669677572696E67204C6F5261A1
:10461000206D6F64756C650D0A000000446F6E6557
:1046200020636F6E6669677572696E67204C6F52A2
:10463000614D6F64756C650D0A000000FFFCF9F6B2
:10464000060708090A0B0C0000010203040506070F
:10465000080900000102030401000000000000003E
:104660000000000001020304060708090000000022
:104670000102030402030405060708090A0B0C0DD6
:104680000E0F10100102232D302B2000686C4C00FF
:104690006566674546470030313233343536373842
:1046A00039414243444546003031323334353637A0
:0C46B00038396162636465660000000038
:0846BC00C4BAFF7F01000000F9
:0446C40035010008B4
:0446C80011010008D4
:1046CC00251200453200000000127A001000000094
:1046DC000100000018000020000000000000000095
:1046EC0000000000000000000000000000000000BE
:1046FC0000000000000000000000000000000000AE
:10470C00000000000000000000000000000000009D
:10471C00000000000000000000000000000000008D
:10472C00000000000000000000000000000000007D
:08473C00000000000000000075
:04000005080018F9DE
:00000001FF
