:020000040800F2
:1000000000500020151900085D180008631800084A
:10001000691800086F180008751800080000000033
:10002000000000000000000000000000A1580008CF
:100030007B18000800000000815A0008C95A000817
:100040005D1900085D1900085D1900085D190008B8
:100050005D1900085D1900085D1900085D190008A8
:100060005D1900085D1900085D1900085D19000898
:100070005D1900085D1900085D1900085D19000888
:100080005D1900085D1900085D1900085D19000878
:100090005D1900085D1900085D1900085D19000868
:1000A0005D1900085D1900085D1900085D19000858
:1000B0005D1900085D190008891800085D1900081D
:1000C0005D1900085D1900085D1900085D19000838
:1000D0005D1900085D1900085D1900085D19000828
:1000E0005D1900085D1900085D1900080000000096
:1000F0000000000000000000000000000000000000
:0C01000000000000000000005FF808F1A3
:1001100010B5054C237833B9044B13B10448AFF341
:1001200000800123237010BD80000020000000002B
:100130007C69000808B5034B1BB103490348AFF3C2
:10014000008008BD00000000840000207C690008D9
:1001500053B94AB9002908BF00281CBF4FF0FF312E
:100160004FF0FF3000F06EB9ADF1080C6DE904CE30
:1001700000F006F8DDF804E0DDE9022304B0704782
:100180002DE9F047089E0D4604468E46002B40F0B0
:1001900083808A42174647D9B2FA82F34BB1C3F142
:1001A000200105FA03FE20FA01F19F4041EA0E0EFC
:1001B0009C404FEA1748BEFBF8FC1FFA87F908FB82
:1001C0001CE20CFB09F0210C41EA024290420AD9E0
:1001D000BA180CF1FF3180F01881904240F215817D
:1001E000ACF1020C3A44121AB2FBF8F008FB1022F0
:1001F00000FB09F1A4B244EA0244A14209D93C1926
:1002000000F1FF3280F00381A14240F20081023808
:100210003C44641A002140EA0C401EB10022DC403C
:10022000C6E90042BDE8F08702B9FFDEB2FA82F308
:10023000002B4FD18D1A01214FEA124E1FFA82F87E
:10024000B5FBFEFC0EFB1C5508FB0CF0220C42EA31
:100250000545A84207D97D190CF1FF3202D2A84208
:1002600000F2E98094462D1AB5FBFEF00EFB105506
:1002700008FB00F8A4B244EA0544A04507D93C199C
:1002800000F1FF3202D2A04500F2D9801046A4EB63
:10029000080440EA0C40C0E78B4208D9002E00F069
:1002A000B1800021C6E900050846BDE8F087B3FA31
:1002B00083F100294BD1AB4202D3824200F2B980D4
:1002C000841A65EB030301209E46002EAAD0C6E9DE
:1002D000004EA7E79F40C3F12002D1404FEA174EDE
:1002E000B1FBFEF01FFA87F80EFB101124FA02F2A0
:1002F0009D4000FB08FC2A43150C45EA0145AC452E
:1003000004FA03F409D97D1900F1FF3180F08F80E0
:10031000AC4540F28C8002383D44A5EB0C05B5FBA2
:10032000FEF10EFB115C01FB08F995B245EA0C45A4
:10033000A94507D97D1901F1FF3274D2A94572D9B7
:1003400002393D44A5EB090541EA004178E7C1F1D6
:1003500020078B4022FA07FC4CEA030C25FA07F42D
:100360004FEA1C4EB4FBFEF91FFA8CF80EFB194441
:1003700020FA07F309FB08FA8D401D432B0C43EAD2
:100380000444A24502FA01F200FA01F309D91CEB78
:10039000040409F1FF3048D2A24546D9A9F1020967
:1003A0006444A4EB0A04B4FBFEF00EFB104400FB13
:1003B00008FAADB245EA0444A24508D91CEB04048E
:1003C00000F1FF352DD2A2452BD90238644440EA12
:1003D0000940A0FB0289A4EB0A044C45C6464D46E1
:1003E00019D316D05EB1B3EB0E0264EB050404FA28
:1003F00007F722FA01F31F43CC40C6E9007400213D
:10040000BDE8F087314630460CE78C46EBE61046F7
:10041000FFE64345E6D2B8EB020E69EB0C05013866
:10042000E0E72846D3E711468CE78146B9E708465E
:1004300073E7084649E7ACF1020C3D4413E7023884
:100440003C4424E7704700BF80B584B000AF7860BB
:100450000B46FB707B681B68FA781146184600F063
:10046000D0FB7B681B68184600F0EBFB0346FB7370
:100470007B681B680121184600F088FBFB7B18464F
:100480001037BD4680BD80B582B000AF78600B46A6
:10049000FB701346BB707B681B680021184600F098
:1004A00075FB7B681A68FB7863F07F03DBB2194643
:1004B000104600F0A6FB7B681B68BA781146184608
:1004C00000F09FFB7B681B680121184600F05EFB73
:1004D00000BF0837BD4680BD90B587B000AFF8605B
:1004E0007A601A460B46FB721346BB72BB7A012B2D
:1004F00027D9FB681B680021184600F047FBFB6802
:100500001B68FA7A1146184600F07BFB0023FB7546
:100510000CE0FB681968FB7D7A68D418084600F087
:1005200090FB03462370FB7D0133FB75FA7DBB7A9C
:100530009A42EED3FB681B680121184600F026FBA7
:1005400000E000BF1C37BD4690BD80B586B000AF4F
:10055000F8607A601A460B46FB721346BB72BB7A90
:10056000012B29D9FB681B680021184600F00EFBFF
:10057000FB681A68FB7A63F07F03DBB2194610460A
:1005800000F03FFB0023FB750BE0FB681868FB7D68
:100590007A6813441B78194600F033FBFB7D013366
:1005A000FB75FA7DBB7A9A42EFD3FB681B68012189
:1005B000184600F0EBFA00E000BF1837BD4680BDDA
:1005C00080B586B000AF7860786800F00DF90F2034
:1005D00000F05DFB786800F017F97B68D3E902232F
:1005E0004FF000004FF00001D90441EA5231D0042D
:1005F0006F4A4FF00003FFF7ABFD02460B46C7E919
:100600000423D7E904014FF000024FF00003020C6D
:1006100042EA01420B0CD3B23B73D7E904014FF01D
:1006200000024FF00003020A42EA01620B0AD3B251
:100630007B733B7CBB7307F10C02032306217868B4
:10064000FFF783FF342239217868FFF71CFF7B68AE
:100650001B7C1A46574B9B5C1A4609217868FFF7AA
:1006600012FF0B220B217868FFF70DFF23220C21CC
:100670007868FFF708FF7B685B7C1A464E4B9B5CF3
:10068000062B47D17B689B7C1A464C4B9B5C1B011D
:10069000DAB27B68DB7C1946494B5B5C5B00DBB202
:1006A0001344DBB20133DBB21A461D217868FFF731
:1006B000EAFE7B685B7C1A463F4B9B5C1B01DAB20F
:1006C0007B681B7D19463F4B5B5C9B00DBB2134490
:1006D000DBB20333DBB21A461E217868FFF7D3FE84
:1006E00031217868FFF7B0FE0346FB73FB7B23F0F4
:1006F0000703FB73FB7B43F00503FB73FB7B1A468D
:1007000031217868FFF7BFFE0C2237217868FFF7A8
:10071000BAFE29E07B689B7C1A46284B9B5C1B0138
:10072000DAB27B68DB7C1946254B5B5C5B00DBB295
:100730001344DBB21A461D217868FFF7A4FE7B68DC
:100740005B7C1A461C4B9B5C1B01DAB27B681B7DF1
:1007500019461C4B5B5C9B00DBB21344DBB21A46B0
:100760001E217868FFF78FFE042226217868FFF7A4
:100770008AFE08221F217868FFF785FE00222021CB
:100780007868FFF780FE082221217868FFF77BFE5A
:10079000012241217868FFF776FE7B68002283F80A
:1007A0001721786800F010F800BF1837BD4680BDEB
:1007B0000048E801346B0008386B0008406B000803
:1007C0004C6B0008506B000880B582B000AF7860B9
:1007D000092201217868FFF756FE7B6801229A758D
:1007E00000BF0837BD4680BD80B582B000AF7860DD
:1007F000082201217868FFF746FE7B6800229A757F
:1008000000BF0837BD4680BD80B582B000AF7860BC
:10081000882201217868FFF736FE00BF0837BD4601
:1008200080BD80B582B000AF7860FF221221786869
:10083000FFF729FE00BF0837BD4680BD80B586B0F2
:1008400000AFF8600B467A60FB72FB68FA7A5A7563
:10085000F868FFF7B5FE84224D21F868FFF713FE14
:10086000FF222421F868FFF70EFE01224021F868DC
:10087000FFF709FE3F221121F868FFF704FEF86830
:10088000FFF7CFFFFB7A1A462221F868FFF7FBFD3E
:100890000F21F868FFF7D8FD0346FB75FB7D1A466C
:1008A0000D21F868FFF7EFFD8D220121F868FFF7B1
:1008B000EAFDFB68002283F817211821F868FFF78A
:1008C000C3FD034603F00403042B04D1FB68032299
:1008D0009A75012313E07B68013B7B607B68002BEA
:1008E00009D1FB681B68184600F067F9F868FFF744
:1008F00067FE002303E0012000F0C9F9DDE7184698
:100900001837BD4680BD80B584B000AF78607B6885
:100910001B68184600F0C6F90346002B30D07B68F0
:1009200017334FF480720021184605F071FB102137
:100930007868FFF789FD0346BB73BB7B1A460D2120
:100940007868FFF7A0FD7B685B7C002B03D17B6898
:100950005B7DFB7305E013217868FFF775FD0346A7
:10096000FB737B6803F11702FB7B00217868FFF7BC
:10097000B3FD7B68FA7B83F817217868FFF751FF96
:100980007B6893F8173118461037BD4680BD80B597
:1009900086B000AFF8600B467A60FB72FB68FA7AAB
:1009A0005A75F868FFF70CFE87224D21F868FFF7AB
:1009B0006AFD00222421F868FFF765FD41224021ED
:1009C000F868FFF760FDF868FFF72BFFF7221121A9
:1009D000F868FFF758FDFB7A1A462221F868FFF7FE
:1009E00052FD0E21F868FFF72FFD0346FB75FB7DD6
:1009F0001A460D21F868FFF746FD2221F868FFF737
:100A000023FD0346BB75BA7DFB7A9A4204D1FB688D
:100A100002229A7501230EE07B68013B7B607B68B4
:100A2000002BEAD1FB681B68184600F0C6F8F8688E
:100A3000FFF7C6FD002318461837BD4680BD80B5B8
:100A400084B000AFF860B9603B601346FB71FB797E
:100A5000BA680021F868FFF778FD8B220121F86859
:100A6000FFF711FDFB681B68184600F01BF90346F1
:100A7000002B0BD01221F868FFF7E6FCF868FFF7AF
:100A8000D0FEF868FFF7A0FE012313E03B68013BAE
:100A90003B603B68002B09D1FB681B68184600F0DF
:100AA0008CF8F868FFF78CFD002303E0012000F0CC
:100AB000EEF8D7E718461037BD4680BD80B584B044
:100AC00000AFF860C7E90023FB681B68184600F018
:100AD00048F8F968D7E90023C1E90223FB683A7EA8
:100AE0001A74FB683A7F5A74FB6897F820209A744E
:100AF000FB6897F82420DA74FB6897F828201A75A9
:100B0000FB6897F82C205A75F868FFF759FD00BF6D
:100B10001037BD4680BD80B584B000AFF860B960C5
:100B20001346FB71FB6893F81731FA799A4203D0A8
:100B3000FB6893F81731FB71FB681733FA79194694
:100B4000B86805F057FAFB79BA68134400221A70A6
:100B5000FB68002283F81721FB7918461037BD4641
:100B600080BD80B582B000AF78600121786800F068
:100B70000DF87B6858687B681B689BB20122194698
:100B800001F0BFF900BF0837BD4680BD80B582B017
:100B900000AF786039607B6858697B681B6999B2DF
:100BA0003B68012B0CBF01230023DBB21A4601F086
:100BB000A8F900BF0837BD4680BD80B582B000AF40
:100BC000786001217868FFF7E1FF7B6858687B68EF
:100BD0001B689BB20022194601F093F9012000F036
:100BE00056F87B6858687B681B689BB201221946DF
:100BF00001F087F9642000F04AF800BF0837BD46CD
:100C000080BD80B582B000AF78600B46FB700021DC
:100C10007868FFF7BBFF7B689869F91C4FF47A731B
:100C2000012201F049FE00BF7B689B69184602F073
:100C300030F90346012BF7D100BF00BF0837BD468E
:100C400080BD80B586B002AF78600023FB730023BF
:100C5000BB7300217868FFF799FF7B68986907F1FB
:100C60000E0207F10F014FF47A730093012301F094
:100C700067FF00BF7B689B69184602F00AF90346CC
:100C8000012BF7D1BB7B18461037BD4680BD80B520
:100C900082B000AF7860786800F094FE00BF08373B
:100CA000BD4680BD80B582B000AF78607B68DA68F1
:100CB0007B689B689BB21946104601F00BF903460E
:100CC000012B0CBF01230023DBB218460837BD46B9
:100CD00080BD000080B485B000AFF860B9607A6074
:100CE000FB68064A1A60BB68054A1A607B68802266
:100CF0001A6000BF1437BD4680BC70479C000020BE
:100D0000500100200FB480B5A2B000AF07F19403EA
:100D10003B60381D3B68D7F89020802105F080FAB1
:100D2000C7F88400D7F88430002B0FDDD7F8843063
:100D3000802B02D98023C7F88430D7F884309AB248
:100D4000391D4FF4FA73054802F0F8FB00BF8837ED
:100D5000BD46BDE8804004B0704700BF5811002078
:100D600080B582B000AF786039603B689AB24FF4CA
:100D7000FA737968034802F0E1FB00BF0837BD460B
:100D800080BD00BF0811002080B584B000AF78603E
:100D90003960642000F016FE3B68DBB24FF4FA6263
:100DA00019461B48FFF7F3FDB860B9681948FFF70B
:100DB000A9FFBB68002B01D1002325E01648FFF7EF
:100DC000A1FF0023FB600AE0FB687A6813441B78EC
:100DD00019461248FFF796FFFB680133FB60FB687A
:100DE0003A689A42F0D80E48FFF78CFF3B68DAB2B7
:100DF0004FF4FA6379680648FFF721FEB860B968D6
:100E00000848FFF77FFF012318461037BD4680BD15
:100E1000F8110020B0690008C0690008D069000816
:100E2000D8690008DC69000880B584B000AF78603C
:100E300039603B68DBB24FF4FA6219462048FFF78D
:100E4000FDFCB860B9681F48FFF75CFFBB68002B6A
:100E500001D100232FE04FF4FA7000F0B3FD1848E1
:100E6000FFF751FD0346BB60B9681748FFF74AFF1B
:100E7000BB68002B1EDDBB68DBB21A4679681048E0
:100E8000FFF749FE1148FFF73DFF0023FB600AE032
:100E9000FB687A6813441B7819460D48FFF732FF48
:100EA000FB680133FB60FA68BB689A42F0DB0948D3
:100EB000FFF728FFBB6818461037BD4680BD00BF4E
:100EC000F8110020F4690008146A0008306A00086C
:100ED000D0690008D869000880B58EB000AF78608E
:100EE00039603B68012B01D80023B9E07B681B788F
:100EF00087F823307B685B7887F8223097F82330B7
:100F0000202B77D0202B00F3AA80012B02D0022BBC
:100F10003BD0A4E000237B6332E0534A7B6B134455
:100F20001B7897F822209A420DD197F82230194663
:100F30004E48FFF7E7FE00F03BFD02464C497B6B55
:100F400041F823201FE0484A7B6B13441B78002B99
:100F500013D1454A7B6B134497F822201A7000F096
:100F600027FD024642497B6B41F8232097F8223047
:100F700019464048FFF7C6FE05E07B6B01337B63F3
:100F80007B6B042BC9DD06236AE000233B632CE066
:100F9000354A3B6B13441B7897F822209A4221D1A3
:100FA00000F006FD024632493B6B41F82320002346
:100FB000FB620DE0FB6A01337A681344197807F18C
:100FC0001802FB6A13440A461A70FB6A0133FB627B
:100FD000FB6A082BEEDD07F1180309211846FFF71D
:100FE000BFFE05E03B6B01333B633B6B042BCFDD66
:100FF0000A2335E00023BB622CE01B4ABB6A134482
:101000001B7897F822209A4221D100F0D1FC0246A9
:101010001749BB6A41F8232000237B620DE07B6AFD
:1010200002337A681344197807F10C027B6A13447F
:101030000A461A707B6A01337B627B6A082BEEDDFD
:1010400007F10C0309211846FFF78AFE05E0BB6A89
:101050000133BB62BB6A042BCFDD0B2300E000230E
:1010600018463837BD4680BD00000020446A00089D
:101070008C030020646A000880B584B000AF7860FB
:1010800000F096FCB8600023FB6023E0154AFB6883
:1010900013441B78002B1AD0134AFB6852F82330F4
:1010A000BA68D31A7A689A4211D20E4AFB6813447E
:1010B0001B7819460D48FFF725FE0B4AFB680021F7
:1010C00042F82310074AFB68134400221A70FB6899
:1010D0000133FB60FB68042BD8DD00BF00BF103775
:1010E000BD4680BD000000208C030020746A00080B
:1010F000B0B596B006AF00F033FC00F08FF800F00A
:1011000053F900F0C7F800F0FBF800F023F9384B72
:10111000384ADA60364B04229A60354B354A5A61B8
:10112000334B10221A61324B324A5A60304B08223C
:101130001A602F4B304A9A61304B2D4A1A60304862
:10114000FFF7E0FD0F23059300230493022303938D
:1011500007230293042301930023009322A3D3E9DE
:1011600000232648FFF7AAFC2648FFF7CBFD4FF4E3
:10117000FA6210212148FFF70AFC0023BB63002319
:10118000FB6307F138030121184602F03AFC0346DD
:101190001D4A13601D4B07F11C041D460FCD0FC4E3
:1011A00095E8070084E8070007F11C0300211846B2
:1011B00002F0C7FB0346164A1360164B3C461D4619
:1011C0000FCD0FC495E8070084E807003B460021D7
:1011D000184602F0B6FB03460F4A136002F0AAFB62
:1011E000FEE700BFAFF300808050DE190000000072
:1011F0001013002000080140A0110020F811002069
:101200008C6A0008A86A000850110020C86A00080B
:101210002C130020E46A00085411002080B590B01F
:1012200000AF07F1180328220021184604F0F0FE51
:101230003B1D00221A605A609A60DA601A6102232C
:10124000BB610123BB621023FB6200237B6307F1B8
:101250001803184600F06EFE0346002B01D000F084
:1012600097F90F237B600023BB600023FB60002302
:101270003B6100237B613B1D0021184601F0DAF839
:101280000346002B01D000F083F900BF4037BD4674
:1012900080BD000080B500AF174B184A1A60164B8E
:1012A0004FF482725A60144B00229A60124B002253
:1012B000DA60114B00221A610F4B00225A610E4B6B
:1012C0004FF400729A610C4B0022DA610A4B002243
:1012D0001A62094B00225A62074B00229A62064B9F
:1012E0000A22DA62044801F063FA0346002B01D0B7
:1012F00000F04EF900BF80BDA01100200030014079
:1013000080B500AF114B124A1A60104B4FF4E13216
:101310005A600E4B00229A600C4B0022DA600B4B95
:1013200000221A61094B0C225A61084B00229A6173
:10133000064B0022DA61054802F0B0F80346002BA4
:1013400001D000F025F900BF80BD00BF581100207A
:101350000038014080B500AF114B124A1A60104BA3
:101360004FF4E1325A600E4B00229A600C4B00227F
:10137000DA600B4B00221A61094B0C225A61084BB0
:1013800000229A61064B0022DA61054802F086F8D5
:101390000346002B01D000F0FBF800BF80BD00BF6A
:1013A000081100200048004080B588B000AF07F168
:1013B000100300221A605A609A60DA602D4B9B6914
:1013C0002C4A43F0100393612A4B9B6903F01003EE
:1013D000FB60FB68274B9B69264A43F0040393613B
:1013E000244B9B6903F00403BB60BB68214B9B69E2
:1013F000204A43F0080393611E4B9B6903F00803E6
:101400007B607B6800224FF400511B4800F079FD9F
:1014100000221821194800F074FD4FF400533B617D
:1014200001237B610023BB610223FB6107F11003F1
:101430001946114800F0CAFB04233B6100237B617D
:101440000023BB6107F1100319460C4800F0BEFBF6
:1014500018233B6101237B610023BB610223FB61F5
:1014600007F110031946054800F0B0FB00BF203714
:10147000BD4680BD00100240001001400008014040
:1014800080B584B000AF7860174B1B684FF0FF3118
:10149000184602F0E9FA0346002B23D1134B012230
:1014A0001A700123FB600BE0FB68013B104AD15C22
:1014B0000E4AFB6813440A461A70FB680133FB604E
:1014C000FB68052BF0DD06210848FFF75DFCB860DE
:1014D000054B1B68184602F015FB4FF4FA7002F03A
:1014E0007CFAD1E700BFCFE750110020A003002015
:1014F0000000002080B584B000AF7860164B1B68F8
:101500004FF0FF31184602F0AFFA0346002B20D10E
:101510003C211248FFF788FCF860F9681048FFF793
:10152000F1FBFB68002B05DDFB6819460B48FFF754
:10153000D3FC02E00B48FFF7E5FB0B48FFF79CFDEF
:10154000054B1B68184602F0DDFAC82002F045FA88
:10155000D4E700BFD2E700BF5011002050030020A5
:10156000006B0008146B0008C027090080B582B02A
:1015700000AF78607B681B68044A934201D100F099
:1015800005FA00BF0837BD4680BD00BF0008004017
:1015900080B400AF72B600BFFEE7000080B584B033
:1015A00000AF184B9B69174A43F001039361154B39
:1015B0009B6903F00103BB60BB68124BDB69114AF6
:1015C00043F08053D3610F4BDB6903F080537B60A2
:1015D0007B6800220F216FF0010000F0CCFA0A4B6B
:1015E0005B68FB60FB6823F0E063FB60FB6843F033
:1015F0008063FB60044AFB68536000BF1037BD4640
:1016000080BD00BF001002400000014080B588B0DE
:1016100000AF786007F1100300221A605A609A60E8
:10162000DA607B681B681B4A93422FD11A4B9B6977
:10163000194A43F480539361174B9B6903F4805319
:10164000FB60FB68144B9B69134A43F004039361EE
:10165000114B9B6903F00403BB60BB68A0233B6193
:1016600002237B610323FB6107F1100319460B483A
:1016700000F0ACFA40233B6100237B610023BB6197
:1016800007F110031946054800F0A0FA00BF203703
:10169000BD4680BD003001400010024000080140FE
:1016A00080B58AB000AF786007F1180300221A6095
:1016B0005A609A60DA607B681B68384A934232D17C
:1016C000374B9B69364A43F480439361344B9B69A3
:1016D00003F480437B617B69314B9B69304A43F063
:1016E000040393612E4B9B6903F004033B613B6948
:1016F0004FF40073BB610223FB6103237B6207F19C
:1017000018031946274800F061FA4FF48063BB6163
:101710000023FB6100233B6207F1180319462148AF
:1017200000F054FA36E07B681B681F4A934231D1BF
:101730001B4BDB691A4A43F48023D361184BDB69E6
:1017400003F48023FB60FB68154B9B69144A43F04C
:1017500008039361124B9B6903F00803BB60BB68ED
:101760004FF48063BB610223FB6103237B6207F1BB
:10177000180319460D4800F029FA4FF40063BB61C5
:101780000023FB6100233B6207F118031946074859
:1017900000F01CFA00BF2837BD4680BD003801406C
:1017A000001002400008014000480040000C0140C9
:1017B00080B58CB000AF78600023FB620023BB6271
:1017C000002279681E2000F0D6F91E2000F0EFF903
:1017D0001E4BDB691D4A43F00403D3611B4BDB69DD
:1017E00003F00403FB60FB6807F1100207F1140328
:1017F0001146184600F08EFF00F064FFF862FB6AA5
:10180000134AA2FB03239B0C013BBB62114B124A00
:101810001A60104B40F2E732DA600E4ABB6A53603E
:101820000C4B00221A610B4B00229A60094801F010
:10183000F6FB0346002B04D1064801F049FC0346A1
:1018400000E0012318463037BD4680BD001002403D
:1018500083DE1B43301300200008004080B400AF3B
:10186000FEE780B400AFFEE780B400AFFEE780B4CF
:1018700000AFFEE780B400AFFEE780B400AF00BF6A
:10188000BD4680BC7047000080B500AF024801F043
:1018900071FC00BF80BD00BF3013002080B586B052
:1018A00000AF7860144A154BD31A7B617B693B61AA
:1018B000134B1B68002B02D1114B124A1A60104BBC
:1018C0001A687B6813443A699A4207D204F066FBAF
:1018D00003460C221A604FF0FF3309E0084B1B68E7
:1018E000FB60074B1A687B681344054A1360FB686A
:1018F00018461837BD4680BD005000200004000087
:10190000A80300209013002080B400AF00BFBD46A4
:1019100080BC7047FFF7F8FF0B480C490C4A0023C6
:1019200002E0D458C4500433C4188C42F9D3094A95
:10193000094C002301E013600432A242FBD304F0FF
:1019400033FBFFF7D5FB7047000000207C00002030
:10195000246C0008800000208C130020FEE70000AB
:1019600080B500AF084B1B68074A43F010031360B3
:10197000032000F0F5F80F20FFF71AFFFFF70EFE27
:101980000023184680BD00BF0020024080B400AF95
:10199000054B1B781A46054B1B681344034A13601A
:1019A00000BFBD4680BC70471000002078130020A7
:1019B00080B400AF024B1B681846BD4680BC704720
:1019C0007813002080B584B000AF7860FFF7F0FF97
:1019D000B8607B68FB60FB68B3F1FF3F05D00A4B42
:1019E0001B781A46FB681344FB6000BFFFF7E0FF5B
:1019F0000246BB68D31AFA689A42F7D800BF00BF04
:101A00001037BD4680BD00BF1000002080B485B0F7
:101A100000AF78607B6803F00703FB600C4BDB686A
:101A2000BB60BA684FF6FF031340BB60FB681A0245
:101A3000BB68134343F0BF6343F40033BB60044A05
:101A4000BB68D36000BF1437BD4680BC704700BF81
:101A500000ED00E080B400AF044BDB681B0A03F02C
:101A600007031846BD4680BC704700BF00ED00E08C
:101A700080B483B000AF0346FB7197F90730002BA9
:101A80000BDBFB7903F01F02064997F907305B096E
:101A9000012000FA02F241F8232000BF0C37BD46B6
:101AA00080BC704700E100E080B483B000AF034623
:101AB0003960FB7197F90730002B0ADB3B68DAB21B
:101AC0000C4997F907301201D2B20B4483F8002376
:101AD0000AE03B68DAB20849FB7903F00F03043BE4
:101AE0001201D2B20B441A7600BF0C37BD4680BC3F
:101AF000704700BF00E100E000ED00E080B489B075
:101B000000AFF860B9607A60FB6803F00703FB611F
:101B1000FB69C3F10703042B28BF0423BB61FB69E6
:101B20000433062B02D9FB69033B00E000237B61F1
:101B30004FF0FF32BB6902FA03F3DA43BB681A4085
:101B40007B699A404FF0FF317B6901FA03F3D94377
:101B50007B680B40134318462437BD4680BC704752
:101B600080B582B000AF78607868FFF74FFF00BFA4
:101B70000837BD4680BD80B586B000AF0346B9606A
:101B80007A60FB7300237B61FFF764FF78617A68FA
:101B9000B9687869FFF7B2FF024697F90F3011462E
:101BA0001846FFF781FF00BF1837BD4680BD80B5DE
:101BB00082B000AF0346FB7197F907301846FFF774
:101BC00057FF00BF0837BD4680BD000080B48BB012
:101BD00000AF7860396000237B6200233B6269E1DB
:101BE00001227B6A02FA03F3FB613B681B68FA6916
:101BF0001340BB61BA69FB699A4240F058813B6867
:101C00005B689A4A93425ED0984A934275D8984A44
:101C1000934258D0964A93426FD8964A934252D0F4
:101C2000944A934269D8944A93424CD0924A934240
:101C300063D8924A934246D0904A93425DD8122B81
:101C40002AD8122B59D801A252F823F0C71C000839
:101C5000A11C0008B31C0008F51C0008FB1C0008B0
:101C6000FB1C0008FB1C0008FB1C0008FB1C0008F8
:101C7000FB1C0008FB1C0008FB1C0008FB1C0008E8
:101C8000FB1C0008FB1C0008FB1C0008FB1C0008D8
:101C9000A91C0008BD1C0008794A934213D02CE00F
:101CA0003B68DB683B6229E03B68DB6804333B62EE
:101CB00024E03B68DB6808333B621FE03B68DB687D
:101CC0000C333B621AE03B689B68002B02D1042373
:101CD0003B6213E03B689B68012B05D108233B6204
:101CE0007B68FA691A6109E008233B627B68FA693C
:101CF0005A6103E000233B6200E000BFBB69FF2B99
:101D000001D87B6801E07B6804337B61BB69FF2BF2
:101D100002D87B6A9B0002E07B6A083B9B003B6128
:101D20007B691A680F213B6901FA03F3DB431A4010
:101D3000396A3B6901FA03F31A437B691A603B680D
:101D40005B6803F08053002B00F0B1804D4B9B6922
:101D50004C4A43F0010393614A4B9B6903F0010332
:101D6000BB60BB68484A7B6A9B08023352F8233049
:101D7000FB607B6A03F003039B000F2202FA03F36C
:101D8000DB43FA681340FB607B68404A934213D000
:101D90007B683F4A93420DD07B683E4A934207D00E
:101DA0007B683D4A934201D1032306E0042304E00B
:101DB000022302E0012300E000237A6A02F003021A
:101DC00092009340FA681343FB602F497B6A9B089B
:101DD0000233FA6841F823203B685B6803F4801300
:101DE000002B06D02D4B9A682C49BB6913438B609E
:101DF00006E02A4B9A68BB69DB43284913408B6095
:101E00003B685B6803F40013002B06D0234BDA68B1
:101E10002249BB691343CB6006E0204BDA68BB69FB
:101E2000DB431E491340CB603B685B6803F400331F
:101E3000002B06D0194B5A681849BB6913434B60F5
:101E400006E0164B5A68BB69DB43144913404B60EC
:101E50003B685B6803F48033002B21D00F4B1A687A
:101E60000E49BB6913430B6021E000BF0000321034
:101E7000000031100000221000002110000012109C
:101E80000000111000100240000001400008014055
:101E9000000C01400010014000140140000401400A
:101EA0000B4B1A68BB69DB43094913400B607B6A23
:101EB00001337B623B681A687B6A22FA03F3002BCA
:101EC0007FF48EAE00BF00BF2C37BD4680BC70478C
:101ED0000004014080B485B000AF78600B467B8081
:101EE0007B689A687B881340002B02D00123FB7328
:101EF00001E00023FB73FB7B18461437BD4680BC12
:101F0000704780B483B000AF78600B467B80134687
:101F10007B707B78002B03D07A887B681A6103E0A2
:101F20007B881A047B681A6100BF0C37BD4680BCF1
:101F30007047000080B586B000AF78607B68002BEA
:101F400001D101236CE27B681B6803F00103002BC5
:101F500000F08780924B5B6803F00C03042B0CD0DD
:101F60008F4B5B6803F00C03082B12D18C4B5B6822
:101F700003F48033B3F5803F0BD1894B1B6803F426
:101F80000033002B6CD07B685B68002B68D1012389
:101F900046E27B685B68B3F5803F06D1804B1B68E7
:101FA0007F4A43F4803313602EE07B685B68002B2C
:101FB0000CD17B4B1B687A4A23F480331360784B37
:101FC0001B68774A23F4802313601DE07B685B68FD
:101FD000B3F5A02F0CD1724B1B68714A43F48023D8
:101FE00013606F4B1B686E4A43F4803313600BE041
:101FF0006B4B1B686A4A23F480331360684B1B6881
:10200000674A23F4802313607B685B68002B13D03E
:10201000FFF7CEFC386108E0FFF7CAFC02463B69D7
:10202000D31A642B01D90323FAE15D4B1B6803F437
:102030000033002BF0D014E0FFF7BAFC386108E061
:10204000FFF7B6FC02463B69D31A642B01D9032380
:10205000E6E1534B1B6803F40033002BF0D100E0A2
:1020600000BF7B681B6803F00203002B63D04C4B5E
:102070005B6803F00C03002B0BD0494B5B6803F04B
:102080000C03082B1CD1464B5B6803F48033002BF8
:1020900016D1434B1B6803F00203002B05D07B686D
:1020A0001B69012B01D00123BAE13D4B1B6823F0D2
:1020B000F8027B685B69DB00394913430B603AE047
:1020C0007B681B69002B20D0364B01221A60FFF77A
:1020D0006FFC386108E0FFF76BFC02463B69D31ADE
:1020E000022B01D903239BE12D4B1B6803F0020354
:1020F000002BF0D02A4B1B6823F0F8027B685B6949
:10210000DB00274913430B6015E0264B00221A60C1
:10211000FFF74EFC386108E0FFF74AFC02463B69D6
:10212000D31A022B01D903237AE11D4B1B6803F05C
:102130000203002BF0D17B681B6803F00803002B1F
:102140003AD07B689B69002B19D0174B01221A608B
:10215000FFF72EFC386108E0FFF72AFC02463B69D6
:10216000D31A022B01D903235AE10D4B5B6A03F00A
:102170000203002BF0D0012000F0FCFA1CE00A4B17
:1021800000221A60FFF714FC38610FE0FFF710FC23
:1021900002463B69D31A022B08D9032340E100BF52
:1021A0000010024000004242800442429E4B5B6AA3
:1021B00003F00203002BE9D17B681B6803F00403E2
:1021C000002B00F0A6800023FB75974BDB6903F022
:1021D0008053002B0DD1944BDB69934A43F080531D
:1021E000D361914BDB6903F08053BB60BB68012373
:1021F000FB758E4B1B6803F48073002B18D18B4B3F
:102200001B688A4A43F480731360FFF7D1FB38617F
:1022100008E0FFF7CDFB02463B69D31A642B01D9D6
:102220000323FDE0814B1B6803F48073002BF0D087
:102230007B68DB68012B06D17B4B1B6A7A4A43F033
:10224000010313622DE07B68DB68002B0CD1764B19
:102250001B6A754A23F001031362734B1B6A724AAF
:1022600023F0040313621CE07B68DB68052B0CD1B0
:102270006D4B1B6A6C4A43F0040313626A4B1B6A82
:10228000694A43F0010313620BE0674B1B6A664A1D
:1022900023F001031362644B1B6A634A23F00403B7
:1022A00013627B68DB68002B15D0FFF781FB386178
:1022B0000AE0FFF77DFB02463B69D31A41F2883200
:1022C000934201D90323ABE0574B1B6A03F002038F
:1022D000002BEED014E0FFF76BFB38610AE0FFF74C
:1022E00067FB02463B69D31A41F28832934201D917
:1022F000032395E04C4B1B6A03F00203002BEED145
:10230000FB7D012B05D1484BDB69474A23F0805305
:10231000D3617B68DB69002B00F08180424B5B68F6
:1023200003F00C03082B61D07B68DB69022B46D1DC
:102330003F4B00221A60FFF73BFB386108E0FFF7D4
:1023400037FB02463B69D31A022B01D9032367E00E
:10235000354B1B6803F00073002BF0D17B681B6AC0
:10236000B3F5803F08D1304B5B6823F400327B68C3
:102370009B682D4913434B602B4B5B6823F474120D
:102380007B68196A7B685B6A0B43274913434B6080
:10239000274B01221A60FFF70BFB386108E0FFF7BB
:1023A00007FB02463B69D31A022B01D9032337E00E
:1023B0001D4B1B6803F00073002BF0D02FE01C4B6B
:1023C00000221A60FFF7F4FA386108E0FFF7F0FA2C
:1023D00002463B69D31A022B01D9032320E0124B9A
:1023E0001B6803F00073002BF0D118E07B68DB69F9
:1023F000012B01D1012313E00B4B5B68FB60FB68F1
:1024000003F480327B681B6A9A4206D1FB6803F4AE
:1024100070127B685B6A9A4201D0012300E00023BE
:1024200018461837BD4680BD0010024000700040BD
:102430006000424280B584B000AF786039607B684C
:10244000002B01D10123D0E06A4B1B6803F0070386
:102450003A689A4210D9674B1B6823F00702654916
:102460003B6813430B60634B1B6803F007033A6838
:102470009A4201D00123B8E07B681B6803F0020395
:10248000002B20D07B681B6803F00403002B05D0D1
:10249000594B5B68584A43F4E06353607B681B68A0
:1024A00003F00803002B05D0534B5B68524A43F4FA
:1024B00060535360504B5B6823F0F0027B689B686D
:1024C0004D4913434B607B681B6803F00103002BED
:1024D00040D07B685B68012B07D1474B1B6803F436
:1024E0000033002B15D101237FE07B685B68022B52
:1024F00007D1414B1B6803F00073002B09D1012366
:1025000073E03D4B1B6803F00203002B01D1012354
:102510006BE0394B5B6823F003027B685B683649EC
:1025200013434B60FFF744FAF8600AE0FFF740FA04
:102530000246FB68D31A41F28832934201D9032341
:1025400053E02D4B5B6803F00C027B685B689B00DB
:102550009A42EBD1274B1B6803F007033A689A4273
:1025600010D2244B1B6823F0070222493B68134317
:102570000B60204B1B6803F007033A689A4201D0B6
:10258000012332E07B681B6803F00403002B08D0B2
:10259000194B5B6823F4E0627B68DB6816491343E0
:1025A0004B607B681B6803F00803002B09D0124BBB
:1025B0005B6823F460527B681B69DB000E491343A0
:1025C0004B6000F021F802460B4B5B681B0903F0DF
:1025D0000F030A49CB5C22FA03F3094A1360094B43
:1025E0001B681846FFF7E4F8002318461037BD466D
:1025F00080BD00BF0020024000100240546B000864
:10260000080000200C00002080B487B000AF002339
:10261000FB600023BB6000237B6100237B60002301
:102620003B611E4B5B68FB60FB6803F00C03042BF3
:1026300002D0082B03D027E0194B3B6127E0FB6851
:102640009B0C03F00F03174AD35C7B60FB6803F419
:102650008033002B10D0114B5B685B0C03F001033F
:10266000114AD35CBB607B680D4A02FB03F2BB6876
:10267000B2FBF3F37B6104E07B680C4A02FB03F3DB
:102680007B617B693B6102E0054B3B6100BF3B69BD
:1026900018461C37BD4680BC704700BF0010024082
:1026A00000127A006C6B00087C6B000800093D008A
:1026B00080B400AF024B1B681846BD4680BC704713
:1026C0000800002080B500AFFFF7F2FF0246054B7F
:1026D0005B681B0A03F007030349CB5C22FA03F390
:1026E000184680BD00100240646B000880B500AF42
:1026F000FFF7DEFF0246054B5B68DB0A03F00703CA
:102700000349CB5C22FA03F3184680BD0010024057
:10271000646B000880B483B000AF786039607B6878
:102720000F221A60114B5B6803F003027B685A604A
:102730000E4B5B6803F0F0027B689A600B4B5B68A2
:1027400003F4E0627B68DA60084B5B68DB0803F443
:10275000E0627B681A61064B1B6803F007023B6866
:102760001A6000BF0C37BD4680BC704700100240A5
:102770000020024080B485B000AF78600A4B1B682F
:102780000A4AA2FB03235B0A7A6802FB03F3FB609D
:1027900000BFFB685A1EFA60002BF9D100BF00BFD2
:1027A0001437BD4680BC704708000020D34D62102E
:1027B00080B582B000AF78607B68002B01D1012327
:1027C00076E07B685B6A002B08D17B685B68B3F5B9
:1027D000827F09D07B680022DA6105E07B680022F5
:1027E0001A617B6800225A617B6800229A627B68CA
:1027F00093F85130DBB2002B06D17B68002283F8BE
:1028000050207868FEF702FF7B68022283F851208F
:102810007B681B681A687B681B6822F040021A609C
:102820007B685B6803F482727B689B6803F40443F3
:102830001A437B68DB6803F400631A437B681B69F7
:1028400003F002031A437B685B6903F001031A4338
:102850007B689B6903F400731A437B68DB6903F0B0
:1028600038031A437B681B6A03F0800342EA0301C2
:102870007B689B6A03F400527B681B680A431A60FA
:102880007B689B691A0C7B681B6802F004025A6023
:102890007B681B68DA697B681B6822F40062DA6176
:1028A0007B6800225A657B68012283F8512000234F
:1028B00018460837BD4680BD80B588B000AFF860C7
:1028C000B9603B601346FB80FFF772F8F861FB8844
:1028D0007B83FB6893F85130DBB2012B01D00223DC
:1028E0002AE1BB68002B02D0FB88002B01D1012319
:1028F00022E1FB6893F85030012B01D102231BE148
:10290000FB68012283F85020FB68032283F85120E2
:10291000FB6800225A65FB68BA681A63FB68FA888C
:102920009A86FB68FA88DA86FB6800229A63FB685D
:1029300000229A87FB680022DA87FB6800225A642B
:10294000FB6800221A64FB689B68B3F5004F0FD147
:10295000FB681B681A68FB681B6822F040021A605B
:10296000FB681B681A68FB681B6842F480421A60A7
:10297000FB681B681B6803F04003402B07D0FB6813
:102980001B681A68FB681B6842F040021A60FB680B
:10299000DB68B3F5006F52D1FB685B68002B02D097
:1029A0007B8B012B45D1FB681B6B1A88FB681B686E
:1029B000DA60FB681B6B9A1CFB681A63FB68DB8E92
:1029C0009BB2013B9AB2FB68DA8632E0FB681B6877
:1029D0009B6803F00203022B12D1FB681B6B1A8861
:1029E000FB681B68DA60FB681B6B9A1CFB681A6348
:1029F000FB68DB8E9BB2013B9AB2FB68DA8618E07B
:102A0000FEF7D6FF0246FB69D31A3A689A4203D80A
:102A10003B68B3F1FF3F02D13B68002B09D1FB6853
:102A2000012283F85120FB68002283F85020032301
:102A300082E0FB68DB8E9BB2002BC7D153E0FB68C2
:102A40005B68002B02D07B8B012B47D1FB681A6B94
:102A5000FB681B680C3312781A70FB681B6B5A1CDE
:102A6000FB681A63FB68DB8E9BB2013B9AB2FB6882
:102A7000DA8633E0FB681B689B6803F00203022BD5
:102A800013D1FB681A6BFB681B680C3312781A7041
:102A9000FB681B6B5A1CFB681A63FB68DB8E9BB2DE
:102AA000013B9AB2FB68DA8618E0FEF781FF024626
:102AB000FB69D31A3A689A4203D83B68B3F1FF3FE7
:102AC00002D13B68002B09D1FB68012283F8512019
:102AD000FB68002283F8502003232DE0FB68DB8E87
:102AE0009BB2002BC6D1FA693968F86800F066FA23
:102AF0000346002B02D0FB6820225A65FB689B68C6
:102B0000002B0AD100237B61FB681B68DB687B61BB
:102B1000FB681B689B687B617B69FB68012283F80B
:102B20005120FB68002283F85020FB685B6D002B6E
:102B300001D0012300E0002318462037BD4680BDA8
:102B400080B58AB000AFF860B9607A607B800123FD
:102B50007B62FEF72DFF3862FB6893F85130FB77FC
:102B6000FB685B68BB617B88FB82FB7F012B0CD021
:102B7000BB69B3F5827F06D1FB689B68002B02D14D
:102B8000FB7F042B01D002237FE1BB68002B05D023
:102B90007B68002B02D07B88002B01D1012374E1DC
:102BA000FB6893F85030012B01D102236DE1FB68E3
:102BB000012283F85020FB6893F85130DBB2042BDC
:102BC00003D0FB68052283F85120FB6800225A6578
:102BD000FB687A689A63FB687A88DA87FB687A8888
:102BE0009A87FB68BA681A63FB687A88DA86FB689A
:102BF0007A889A86FB6800221A64FB6800225A646D
:102C0000FB681B681B6803F04003402B07D0FB6880
:102C10001B681A68FB681B6842F040021A60FB6878
:102C2000DB68B3F5006F7ED1FB685B68002B02D0D8
:102C3000FB8A012B6CD1FB681B6B1A88FB681B6835
:102C4000DA60FB681B6B9A1CFB681A63FB68DB8EFF
:102C50009BB2013B9AB2FB68DA8659E0FB681B68BD
:102C60009B6803F00203022B1BD1FB68DB8E9BB237
:102C7000002B16D07B6A012B13D1FB681B6B1A88C3
:102C8000FB681B68DA60FB681B6B9A1CFB681A63A5
:102C9000FB68DB8E9BB2013B9AB2FB68DA860023AD
:102CA0007B62FB681B689B6803F00103012B19D151
:102CB000FB68DB8F9BB2002B14D0FB681B68DA68C3
:102CC000FB689B6B92B21A80FB689B6B9A1CFB683B
:102CD0009A63FB68DB8F9BB2013B9AB2FB68DA8791
:102CE00001237B62FEF764FE02463B6AD31A3A6B0D
:102CF0009A420DD83B6BB3F1FF3F09D0FB6801222C
:102D000083F85120FB68002283F850200323BCE0A5
:102D1000FB68DB8E9BB2002BA0D1FB68DB8F9BB2E4
:102D2000002B9BD182E0FB685B68002B02D0FB8A02
:102D3000012B71D1FB681A6BFB681B680C3312788E
:102D40001A70FB681B6B5A1CFB681A63FB68DB8EEE
:102D50009BB2013B9AB2FB68DA865DE0FB681B68B8
:102D60009B6803F00203022B1CD1FB68DB8E9BB235
:102D7000002B17D07B6A012B14D1FB681A6BFB6800
:102D80001B680C3312781A70FB681B6B5A1CFB68AB
:102D90001A63FB68DB8E9BB2013B9AB2FB68DA8652
:102DA00000237B62FB681B689B6803F00103012B17
:102DB00019D1FB68DB8F9BB2002B14D0FB681B681A
:102DC000DA68FB689B6BD2B21A70FB689B6B5A1C6B
:102DD000FB689A63FB68DB8F9BB2013B9AB2FB688E
:102DE000DA8701237B62FEF7E3FD02463B6AD31AD2
:102DF0003A6B9A4203D83B6BB3F1FF3F02D13B6B76
:102E0000002B09D1FB68012283F85120FB680022C6
:102E100083F85020032338E0FB68DB8E9BB2002B45
:102E20009CD1FB68DB8F9BB2002B97D13A6A396B40
:102E3000F86800F0C3F80346002B08D0FB68202296
:102E40005A65FB68002283F8502001231DE0FB68CF
:102E50009B68002B0AD100233B61FB681B68DB6881
:102E60003B61FB681B689B683B613B69FB68012217
:102E700083F85120FB68002283F85020FB685B6DCB
:102E8000002B01D0012300E0002318462837BD465F
:102E900080BD80B483B000AF78607B6893F8513018
:102EA000DBB218460C37BD4680BC704780B588B091
:102EB00000AFF860B9603B601346FB71FEF778FD28
:102EC0000246BB6A9B1A3A681344FB61FEF770FD29
:102ED000B861394B1B685B011B0DFA6902FB03F3F8
:102EE0007B6154E03B68B3F1FF3F50D0FEF760FDDB
:102EF0000246BB69D31AFA699A4202D9FB69002BD0
:102F00003DD1FB681B685A68FB681B6822F0E00231
:102F10005A60FB685B68B3F5827F11D1FB689B68E0
:102F2000B3F5004F04D0FB689B68B3F5806F07D101
:102F3000FB681B681A68FB681B6822F040021A6075
:102F4000FB689B6AB3F5005F0FD1FB681B681A68CA
:102F5000FB681B6822F400521A60FB681B681A6841
:102F6000FB681B6842F400521A60FB68012283F878
:102F70005120FB68002283F85020032317E07B696F
:102F8000002B01D10023FB617B69013B7B61FB6866
:102F90001B689A68BB681340BA689A420CBF012349
:102FA0000023DBB21A46FB799A429BD100231846D4
:102FB0002037BD4680BD00BF0800002080B586B028
:102FC00002AFF860B9607A607B680093BB68012249
:102FD0000221F868FFF76AFF0346002B07D0FB6861
:102FE0005B6D43F02002FB685A65032313E07B68A6
:102FF0000093BB6800228021F868FFF757FF034663
:10300000002B07D0FB685B6D43F02002FB685A651C
:10301000032300E0002318461037BD4680BD80B56D
:1030200082B000AF78607B68002B01D1012341E0C2
:103030007B6893F83D30DBB2002B06D17B68002221
:1030400083F83C20786800F039F87B68022283F826
:103050003D207B681A687B6804331946104600F0EF
:103060009DF97B68012283F846207B68012283F862
:103070003E207B68012283F83F207B68012283F891
:1030800040207B68012283F841207B68012283F87D
:1030900042207B68012283F843207B68012283F869
:1030A00044207B68012283F845207B68012283F855
:1030B0003D20002318460837BD4680BD80B483B04C
:1030C00000AF786000BF0C37BD4680BC7047000081
:1030D00080B485B000AF78607B6893F83D30DBB298
:1030E000012B01D001233AE07B68022283F83D20C6
:1030F0007B681B68DA687B681B6842F00102DA6053
:103100007B681B68184A93420ED07B681B68B3F13A
:10311000804F09D07B681B68144A934204D07B68B7
:103120001B68134A934211D17B681B689B6803F0AC
:103130000703FB60FB68062B10D07B681B681A68CE
:103140007B681B6842F001021A6007E07B681B681D
:103150001A687B681B6842F001021A600023184657
:103160001437BD4680BC7047002C0140000400406D
:103170000008004080B584B000AF78607B681B68B1
:10318000DB68FB607B681B681B69BB60BB6803F086
:103190000203002B20D0FB6803F00203002B1BD09E
:1031A0007B681B686FF002021A617B6801221A7744
:1031B0007B681B689B6903F00303002B03D07868CE
:1031C00000F0D1F805E0786800F0C4F8786800F005
:1031D000D3F87B6800221A77BB6803F00403002B46
:1031E00020D0FB6803F00403002B1BD07B681B6816
:1031F0006FF004021A617B6802221A777B681B68F1
:103200009B6903F44073002B03D0786800F0ABF89F
:1032100005E0786800F09EF8786800F0ADF87B680B
:1032200000221A77BB6803F00803002B20D0FB684C
:1032300003F00803002B1BD07B681B686FF00802AB
:103240001A617B6804221A777B681B68DB6903F0CC
:103250000303002B03D0786800F085F805E0786858
:1032600000F078F8786800F087F87B6800221A7719
:10327000BB6803F01003002B20D0FB6803F01003A1
:10328000002B1BD07B681B686FF010021A617B68F3
:1032900008221A777B681B68DB6903F44073002BF4
:1032A00003D0786800F05FF805E0786800F052F825
:1032B000786800F061F87B6800221A77BB6803F039
:1032C0000103002B0CD0FB6803F00103002B07D097
:1032D0007B681B686FF001021A617868FEF746F997
:1032E000BB6803F08003002B0CD0FB6803F0800365
:1032F000002B07D07B681B686FF080021A6178682A
:1033000000F0C3F8BB6803F04003002B0CD0FB684F
:1033100003F04003002B07D07B681B686FF040026E
:103320001A61786800F031F8BB6803F02003002BC5
:103330000CD0FB6803F02003002B07D07B681B68D0
:103340006FF020021A61786800F096F800BF10371D
:10335000BD4680BD80B483B000AF786000BF0C373D
:10336000BD4680BC704780B483B000AF786000BFBA
:103370000C37BD4680BC704780B483B000AF786026
:1033800000BF0C37BD4680BC704780B483B000AF2F
:10339000786000BF0C37BD4680BC704780B485B0F4
:1033A00000AF786039607B681B68FB607B682F4AE0
:1033B00093420BD07B68B3F1804F07D07B682C4AD7
:1033C000934203D07B682B4A934208D1FB6823F0D9
:1033D0007003FB603B685B68FA681343FB607B68C3
:1033E000224A93420BD07B68B3F1804F07D07B68B1
:1033F0001F4A934203D07B681E4A934208D1FB6860
:1034000023F44073FB603B68DB68FA681343FB609E
:10341000FB6823F080023B685B691343FB607B68B9
:10342000FA681A603B689A687B68DA623B681A68D7
:103430007B689A627B680D4A934203D13B681A69A4
:103440007B681A637B6801225A617B681B6903F001
:103450000103002B05D07B681B6923F001027B6808
:103460001A6100BF1437BD4680BC7047002C014074
:10347000000400400008004080B483B000AF7860D2
:1034800000BF0C37BD4680BC704780B483B000AF2E
:10349000786000BF0C37BD4680BC704780B582B0F5
:1034A00000AF78607B68002B01D1012342E07B688C
:1034B00093F84130DBB2002B06D17B68002283F801
:1034C00040207868FEF7ECF87B68242283F84120DE
:1034D0007B681B68DA687B681B6822F40052DA603C
:1034E000786800F071F97B681B681A697B681B6853
:1034F00022F490421A617B681B685A697B681B68DA
:1035000022F02A025A617B681B68DA687B681B68B4
:1035100042F40052DA607B6800225A647B68202201
:1035200083F841207B68202283F842207B680022B8
:103530005A63002318460837BD4680BD80B58AB05F
:1035400002AFF860B9603B601346FB8000237B61EB
:10355000FB6893F84130DBB2202B75D1BB68002BA0
:1035600002D0FB88002B01D101236EE0FB68002212
:103570005A64FB68212283F84120FEF719FA78612A
:10358000FB68FA889A84FB68FA88DA84FB689B688F
:10359000B3F5805F08D1FB681B69002B04D10023C1
:1035A000FB61BB68BB6103E0BB68FB610023BB61DF
:1035B0002EE03B6800937B6900228021F86800F0D0
:1035C00048F80346002B05D0FB68202283F84120F1
:1035D00003233AE0FB69002B0BD1BB691B881A4619
:1035E000FB681B68C2F308025A60BB690233BB6107
:1035F00007E0FB691A78FB681B685A60FB690133B6
:10360000FB61FB68DB8C9BB2013B9AB2FB68DA84FE
:10361000FB68DB8C9BB2002BCBD13B6800937B69B2
:1036200000224021F86800F014F80346002B05D072
:10363000FB68202283F84120032306E0FB68202258
:1036400083F84120002300E0022318462037BD46BE
:1036500080BD80B586B000AFF860B9603B601346AE
:10366000FB713BE03B6AB3F1FF3F37D0FEF7A0F9B7
:1036700002463B68D31A3A6A9A4202D33B6A002B4D
:1036800001D103233AE0FB681B68DB6803F0040305
:10369000002B23D0BB68802B20D0BB68402B1DD0D3
:1036A000FB681B681B6803F00803082B16D1002376
:1036B0007B61FB681B681B687B61FB681B685B6840
:1036C0007B617B69F86800F01DF8FB6808225A648A
:1036D000FB68002283F8402001230FE0FB681B6891
:1036E0001A68BB681340BA689A420CBF01230023D2
:1036F000DBB21A46FB799A42B4D000231846183739
:10370000BD4680BD80B495B000AF78607B681B6813
:103710000C337B637B6B53E8003F3B633B6B23F4D1
:103720009073FB647B681B680C33FA6C3A64FB6330
:10373000F96B3A6C41E80023BB63BB6B002BE5D10E
:103740007B681B6814333B623B6A53E8003FFB61B4
:10375000FB6923F00103BB647B681B681433BA6CFC
:10376000FA62BB62B96AFA6A41E800237B627B6A4B
:10377000002BE5D17B681B6B012B19D17B681B6883
:103780000C33FB60FB6853E8003FBB60BB6823F071
:1037900010037B647B681B680C337A6CBA617B61B5
:1037A0007969BA6941E800233B613B69002BE5D1A7
:1037B0007B68202283F842207B6800221A6300BFC6
:1037C0005437BD4680BC704780B584B000AF786088
:1037D0007B681B681B6923F440517B68DA687B684F
:1037E0001B680A431A617B689A687B681B691A43E5
:1037F0007B685B691343BB607B681B68DB6823F4F1
:10380000B05323F00C037A681268B9680B43D36095
:103810007B681B685B6923F440717B689A697B68ED
:103820001B680A435A617B681B682C4A934203D188
:10383000FEF75CFFF86002E0FEF744FFF860FA680C
:1038400013469B0013449A001A447B685B689B00F4
:10385000B2FBF3F3224AA2FB03235B091901FA68C6
:1038600013469B0013449A001A447B685B689B00D4
:10387000B2FBF3F21A4BA3FB02035B09642000FBCB
:1038800003F3D31A1B013233154AA2FB03235B094E
:1038900003F0F0031944FA6813469B0013449A009E
:1038A0001A447B685B689B00B2FBF3F20C4BA3FBF2
:1038B00002035B09642000FB03F3D31A1B013233BC
:1038C000074AA2FB03235B0903F00F027B681B6816
:1038D0000A449A6000BF1037BD4680BD00380140E1
:1038E0001F85EB5180B485B000AF0346FB800023F9
:1038F000FB60B7F90630842B05D0B7F90620FB68CA
:1039000013440333FB60FB6818461437BD4680BC84
:10391000704780B483B000AFEFF305837B607B68B2
:10392000002B14BF01230023DBB218460C37BD4621
:1039300080BC704780B500AF01F022F90023184623
:1039400080BDF0B589B004AF786039607B685B6991
:10395000002B20D07B689B69002B1CD07B685C68A7
:103960007B681D687B681E697B68B3F90830184660
:10397000FFF7B8FF01467B685B697A68926902923B
:10398000019300913B6832462946204600F019FF1A
:103990000346FB601CE07B685C687B681D687B6895
:1039A0001B699EB27B68B3F908301846FFF79AFF8F
:1039B000024607F10C03019300923B683246294608
:1039C000204600F05BFF0346012B01D0002300E0FE
:1039D000FB6818461437BD46F0BD80B584B000AF13
:1039E00078607B68FB60FB68002B01D0FB6800E01F
:1039F0000123184601F090F8002318461037BD4601
:103A000080BD80B586B002AF786039607B685B6846
:103A1000002B0FD03B68012B0AD17B685B68032227
:103A2000009200220021012000F0BAF9034616E0BE
:103A3000002314E03B68012B10D103220021012058
:103A400000F026FAF860FB68002B05D00023002266
:103A50000021F86800F076FAFB6800E000231846C1
:103A60001037BD4680BD000080B584B000AF7860DF
:103A700039600023BB607B68002B01D180233AE0D2
:103A80000023FB603B68B3F1FF3F03D14FF0FF33EE
:103A9000FB6009E03B68002B06D03B68FB60FB68DD
:103AA000002B01D10123FB60FFF733FF0346002BFE
:103AB00017D007F108031A460021786800F0DAFCF5
:103AC0000346012B01D0FF2315E0BB68002B11D06A
:103AD0000B4B4FF080521A60BFF34F8FBFF36F8FC5
:103AE00008E0F968786800F0B9FB0346012B01D0C3
:103AF000FF2300E0002318461037BD4680BD00BFFD
:103B000004ED00E080B584B000AF78600023FB6076
:103B10000023BB60FFF7FDFE0346002B16D007F124
:103B200008031946786800F00BFB0346012B01D00F
:103B3000FF2317E0BB68002B13D00C4B4FF08052D3
:103B40001A60BFF34F8FBFF36F8F0AE0002300228C
:103B50000021786800F0F6F90346012B01D0FF231D
:103B6000FB60FB6818461037BD4680BD04ED00E0E1
:103B700080B483B000AF78607B6803F108027B6893
:103B80005A607B684FF0FF329A607B6803F108024D
:103B90007B68DA607B6803F108027B681A617B68E6
:103BA00000221A6000BF0C37BD4680BC704780B44D
:103BB00083B000AF78607B6800221A6100BF0C37C9
:103BC000BD4680BC704780B485B000AF7860396076
:103BD0007B685B68FB603B68FA685A60FB689A68C0
:103BE0003B689A60FB689B683A685A60FB683A6871
:103BF0009A603B687A681A617B681B685A1C7B680C
:103C00001A6000BF1437BD4680BC704780B485B0D1
:103C100000AF786039603B681B68BB60BB68B3F17C
:103C2000FF3F03D17B681B69FB600CE07B680833B6
:103C3000FB6002E0FB685B68FB60FB685B681B681D
:103C4000BA689A42F6D2FB685A683B685A603B6889
:103C50005B683A689A603B68FA689A60FB683A6801
:103C60005A603B687A681A617B681B685A1C7B68DB
:103C70001A6000BF1437BD4680BC704780B485B061
:103C800000AF78607B681B69FB607B685B687A6863
:103C900092689A607B689B687A6852685A60FB6891
:103CA0005B687A689A4203D17B689A68FB685A60BD
:103CB0007B6800221A61FB681B685A1EFB681A6049
:103CC000FB681B6818461437BD4680BC704700006F
:103CD00080B584B000AF786039607B68FB60FB68BA
:103CE000002B0AD14FF0500383F31188BFF36F8F7D
:103CF000BFF34F8FBB6000BFFEE701F067FEFB68BC
:103D00001A68FB68DB6BF968096C01FB03F31A4462
:103D1000FB689A60FB6800229A63FB681A68FB687C
:103D20005A60FB681A68FB68DB6B013BF968096C39
:103D300001FB03F31A44FB68DA60FB68FF2283F897
:103D40004420FB68FF2283F845203B68002B14D1F8
:103D5000FB681B69002B1AD0FB681033184601F072
:103D600061F90346002B12D00C4B4FF080521A60C1
:103D7000BFF34F8FBFF36F8F09E0FB681033184616
:103D8000FFF7F6FEFB6824331846FFF7F1FE01F05B
:103D90004DFE012318461037BD4680BD04ED00E0FE
:103DA00080B58EB002AFF860B9607A603B60FB68A6
:103DB000002B0AD14FF0500383F31188BFF36F8FAC
:103DC000BFF34F8FBB6200BFFEE73B68002B0AD1F9
:103DD0004FF0500383F31188BFF36F8FBFF34F8F02
:103DE0007B6200BFFEE77B68002B02D0BB68002B24
:103DF00001D0012300E00023002B0AD14FF0500333
:103E000083F31188BFF36F8FBFF34F8F3B6200BF07
:103E1000FEE77B68002B02D1BB68002B01D1012398
:103E200000E00023002B0AD14FF0500383F31188E8
:103E3000BFF36F8FBFF34F8FFB6100BFFEE74823D7
:103E40007B617B69482B0AD04FF0500383F31188C4
:103E5000BFF36F8FBFF34F8FBB6100BFFEE77B697E
:103E60003B68FB62FB6A002B0DD0FB6A012283F8E2
:103E7000462097F83820FB6A009313467A68B968A1
:103E8000F86800F03FF8FB6A18463037BD4680BD41
:103E900080B58AB002AFF860B9601346FB71FB6869
:103EA000002B0AD14FF0500383F31188BFF36F8FBB
:103EB000BFF34F8F3B6100BFFEE7FB68BA6802FBB0
:103EC00003F3FB61FB694833184601F07FFEB861DC
:103ED000BB69002B11D0BB697B617B6948337B6177
:103EE000BB69002283F84620FA79BB690093134628
:103EF0007A69B968F86800F005F8BB691846203798
:103F0000BD4680BD80B584B000AFF860B9607A600E
:103F1000FB70BB68002B03D1BB69BA691A6002E071
:103F2000BB697A681A60BB69FA68DA63BB69BA6808
:103F30001A640121B869FFF7CBFE00BF1037BD46F8
:103F400080BD000080B58EB000AFF860B9607A60C7
:103F50003B6000237B63FB683B633B6B002B0AD118
:103F60004FF0500383F31188BFF36F8FBFF34F8F70
:103F7000BB6200BFFEE7BB68002B03D13B6B1B6C31
:103F8000002B01D1012300E00023002B0AD14FF0C8
:103F9000500383F31188BFF36F8FBFF34F8F7B62A2
:103FA00000BFFEE73B68022B03D13B6BDB6B012BB1
:103FB00001D1012300E00023002B0AD14FF0500370
:103FC00083F31188BFF36F8FBFF34F8F3B6200BF46
:103FD000FEE701F0E7F90346002B02D17B68002BD6
:103FE00001D1012300E00023002B0AD14FF0500340
:103FF00083F31188BFF36F8FBFF34F8FFB6100BF57
:10400000FEE701F0E3FC3B6B9A6B3B6BDB6B9A4288
:1040100002D33B68022B29D13A68B968386B00F0AB
:10402000C0FAF8623B6B5B6A002B10D03B6B243309
:10403000184600F0F7FF0346002B13D03F4B4FF01C
:1040400080521A60BFF34F8FBFF36F8F0AE0FB6A95
:10405000002B07D0394B4FF080521A60BFF34F8FBF
:10406000BFF36F8F01F0E2FC012363E07B68002B5C
:1040700003D101F0DBFC00235CE07B6B002B06D15D
:1040800007F11403184601F02FF801237B6301F0B8
:10409000CDFC00F0DFFD01F099FC3B6B93F8443060
:1040A0005BB2B3F1FF3F03D13B6B002283F84420A6
:1040B0003B6B93F845305BB2B3F1FF3F03D13B6BF1
:1040C000002283F8452001F0B1FC3A1D07F11403EA
:1040D0001146184601F01EF80346002B24D1386B18
:1040E00000F057FB0346002B18D03B6B10337A6867
:1040F0001146184600F072FF386B00F0E2FA00F04B
:10410000B7FD0346002B7FF47CAF0C4B4FF0805281
:104110001A60BFF34F8FBFF36F8F72E7386B00F0F9
:10412000D0FA00F0A5FD6CE7386B00F0CAFA00F099
:104130009FFD002318463837BD4680BD04ED00E0E2
:1041400080B58EB000AF786039607B683B633B6BB5
:10415000002B0AD14FF0500383F31188BFF36F8F08
:10416000BFF34F8F3B6200BFFEE73B6B1B6C002B26
:104170000AD04FF0500383F31188BFF36F8FBFF362
:104180004F8FFB6100BFFEE73B6B1B68002B03D129
:104190003B6B9B68002B01D1012300E00023002B27
:1041A0000AD14FF0500383F31188BFF36F8FBFF331
:1041B0004F8FBB6100BFFEE701F0CAFCEFF3118235
:1041C0004FF0500383F31188BFF36F8FBFF34F8F0E
:1041D0007A613B617B69FB623B6B9B6BBB623B6BB8
:1041E000DB6BBA6A9A422BD23B6B93F8453087F867
:1041F0002730BB6A5A1C3B6B9A6397F92730B3F19F
:10420000FF3F12D13B6B5B6A002B16D03B6B243314
:10421000184600F007FF0346002B0ED03B68002B2A
:104220000BD03B6801221A6007E097F82730013372
:10423000DBB25AB23B6B83F8452001237B6301E07C
:1042400000237B63FB6AFB60FB6883F3118800BF7C
:104250007B6B18463837BD4680BD000080B58EB0F8
:1042600000AF7860396000237B637B68FB620023CA
:104270003B63FB6A002B0AD14FF0500383F3118894
:10428000BFF36F8FBFF34F8F3B6200BFFEE7FB6A48
:104290001B6C002B0AD04FF0500383F31188BFF33F
:1042A0006F8FBFF34F8FFB6100BFFEE701F07AF81D
:1042B0000346002B02D13B68002B01D1012300E013
:1042C0000023002B0AD14FF0500383F31188BFF372
:1042D0006F8FBFF34F8FBB6100BFFEE701F076FB2E
:1042E000FB6A9B6BBB62BB6A002B24D0BB6A5A1E65
:1042F000FB6A9A63FB6A1B68002B04D101F0FAF990
:104300000246FB6A9A60FB6A1B69002B0FD0FB6AAE
:104310001033184600F086FE0346002B07D0544B9E
:104320004FF080521A60BFF34F8FBFF36F8F01F0D1
:104330007DFB012397E03B68002B11D13B6B002BE9
:104340000AD04FF0500383F31188BFF36F8FBFF390
:104350004F8F7B6100BFFEE701F068FB002382E026
:104360007B6B002B06D107F10C03184600F0BCFE56
:1043700001237B6301F05AFB00F06CFC01F026FB8B
:10438000FB6A93F844305BB2B3F1FF3F03D1FB6AA1
:10439000002283F84420FB6A93F845305BB2B3F106
:1043A000FF3F03D1FB6A002283F8452001F03EFB6A
:1043B0003A4607F10C031146184600F0ABFE0346DF
:1043C000002B32D1F86A00F0CEF90346002B26D03C
:1043D000FB6A1B68002B09D101F0F8FAFB6A9B68A5
:1043E000184600F0FDFF386301F020FBFB6A243320
:1043F0003A681146184600F0F1FDF86A00F061F9DC
:1044000000F036FC0346002B7FF468AF184B4FF0EA
:1044100080521A60BFF34F8FBFF36F8F5EE7F86A69
:1044200000F04FF900F024FC58E7F86A00F049F971
:1044300000F01EFCF86A00F096F90346002B3FF4EA
:104440004DAF3B6B002B0DD001F0C0FAF86A00F0C5
:1044500091F87862FB6A9B68796A184601F0BCF8AB
:1044600001F0E4FA002318463837BD4680BD00BF8E
:1044700004ED00E080B58EB000AFF860B9607A60FE
:10448000FB683B633B6B002B0AD14FF0500383F377
:104490001188BFF36F8FBFF34F8F3B6200BFFEE702
:1044A000BB68002B03D13B6B1B6C002B01D101239C
:1044B00000E00023002B0AD14FF0500383F3118852
:1044C000BFF36F8FBFF34F8FFB6100BFFEE701F0BB
:1044D0003FFBEFF311824FF0500383F31188BFF3DA
:1044E0006F8FBFF34F8FBA617B61BB69FB623B6B20
:1044F0009B6BBB62BB6A002B2FD03B6B93F84430A5
:1045000087F82730B968386B00F0B5F8BB6A5A1ED7
:104510003B6B9A6397F92730B3F1FF3F12D13B6BA6
:104520001B69002B16D03B6B1033184600F07AFD48
:104530000346002B0ED07B68002B0BD07B6801223A
:104540001A6007E097F827300133DBB25AB23B6BB1
:1045500083F8442001237B6301E000237B63FB6A33
:104560003B613B6983F3118800BF7B6B184638378A
:10457000BD4680BD80B485B000AF78607B685B6A63
:10458000002B06D07B681B6B1B68C3F10703FB6025
:1045900001E00023FB60FB6818461437BD4680BC71
:1045A000704780B586B000AFF860B9607A600023CC
:1045B0007B61FB689B6B3B61FB681B6C002B0DD127
:1045C000FB681B68002B4DD1FB689B68184600F008
:1045D0007DFF7861FB6800229A6043E07B68002BD6
:1045E00019D1FB685868FB681B6C1A46B96801F062
:1045F00001FDFB685A68FB681B6C1A44FB685A6033
:10460000FB685A68FB689B689A422BD3FB681A6860
:10461000FB685A6026E0FB68D868FB681B6C1A468A
:10462000B96801F0E7FCFB68DA68FB681B6C5B4269
:104630001A44FB68DA60FB68DA68FB681B689A4218
:1046400007D2FB689A68FB681B6C5B421A44FB68E4
:10465000DA607B68022B05D13B69002B02D03B69F5
:10466000013B3B613B695A1CFB689A637B691846B6
:104670001837BD4680BD80B582B000AF7860396024
:104680007B681B6C002B18D07B68DA687B681B6C1E
:104690001A447B68DA607B68DA687B689B689A42B8
:1046A00003D37B681A687B68DA607B68D9687B68AB
:1046B0001B6C1A46386801F09DFC00BF0837BD46E8
:1046C00080BD80B584B000AF786001F07FF97B6871
:1046D00093F84530FB7311E07B685B6A002B12D0C6
:1046E0007B682433184600F09DFC0346002B01D064
:1046F00000F072FDFB7B013BDBB2FB7397F90F30DF
:10470000002BE9DC00E000BF7B68FF2283F8452036
:1047100001F08CF901F05AF97B6893F84430BB73CF
:1047200011E07B681B69002B12D07B6810331846A0
:1047300000F078FC0346002B01D000F04DFDBB7B60
:10474000013BDBB2BB7397F90E30002BE9DC00E0D4
:1047500000BF7B68FF2283F8442001F067F900BFA7
:104760001037BD4680BD80B584B000AF786001F0E1
:104770002DF97B689B6B002B02D10123FB6001E0CC
:104780000023FB6001F052F9FB6818461037BD4664
:1047900080BD80B584B000AF786001F017F97B6808
:1047A0009A6B7B68DB6B9A4202D10123FB6001E0CC
:1047B0000023FB6001F03AF9FB6818461037BD464C
:1047C00080BD80B58EB004AFF860B9607A603B60A0
:1047D0007B6B002B0AD14FF0500383F31188BFF39A
:1047E0006F8FBFF34F8F3B6200BFFEE7BB6B002BA9
:1047F0000AD14FF0500383F31188BFF36F8FBFF3DB
:104800004F8FFB6100BFFEE7B4233B613B69B42BD4
:104810000AD04FF0500383F31188BFF36F8FBFF3BB
:104820004F8FBB6100BFFEE73B69BB6B002B1ED007
:104830007B6B002B1BD0BB6B7B627B6A7A6B1A6332
:104840007B6A022283F8B120002303937B6A0293E0
:1048500007F1140301933B6B00933B687A68B968D6
:10486000F86800F051F8786A00F0ECF801E00023F5
:104870007B617B6918462837BD4680BD80B58CB00A
:1048800004AFF860B9603B601346FB80FB889B0077
:10489000184601F09BF978617B69002B0ED0B4209B
:1048A00001F094F9F861FB69002B03D0FB697A6988
:1048B0001A6305E0786901F055FA01E00023FB6115
:1048C000FB69002B17D0FB69002283F8B120FA881E
:1048D00000230393FB690293FB6A0193BB6A009375
:1048E0003B68B968F86800F00FF8F86900F0AAF8BA
:1048F0000123BB6102E04FF0FF33BB61BB69184687
:104900002037BD4680BD000080B588B000AFF8609C
:10491000B9607A603B603B6B1A6B7B6803F1804344
:10492000013B9B001344BB61BB6923F00703BB61E0
:10493000BB6903F00703002B0AD04FF0500383F349
:104940001188BFF36F8FBFF34F8F7B6100BFFEE70E
:10495000BB68002B1FD00023FB6112E0BA68FB6923
:10496000134419783A6BFB69134434330A461A70BE
:10497000BA68FB6913441B78002B06D0FB6901332E
:10498000FB61FB690F2BE9D900E000BF3B6B002204
:1049900083F8432003E03B6B002283F83420BB6A9A
:1049A000062B01D90623BB623B6BBA6ADA623B6B0A
:1049B000BA6A5A643B6B00229A643B6B0433184614
:1049C000FFF7F5F83B6B18331846FFF7F0F83B6B31
:1049D0003A6B1A61BB6AC3F107023B6B9A613B6B8E
:1049E0003A6B5A623B6B0022C3F8AC203B6B00224F
:1049F00083F8B0203B6B4C3360220021184601F055
:104A000007FB3B6B0C4A1A653B6B0C4A5A653B6BC8
:104A10000B4A9A653A68F968B86900F0E5FE024603
:104A20003B6B1A60FB6A002B02D0FB6A3A6B1A6080
:104A300000BF2037BD4680BDA06B0008C06B0008DA
:104A4000806B000880B582B000AF786000F0BEFFD8
:104A50002A4B1B680133294A1360294B1B68002B22
:104A600009D1274A7B681360244B1B68012B10D1A6
:104A700000F0D6FB0DE0234B1B68002B09D1204B27
:104A80001B68DA6A7B68DB6A9A4202D81C4A7B6838
:104A900013601D4B1B6801331B4A13607B68DB6A84
:104AA00001229A40194B1B681343184A13607B6814
:104AB000DA6A13469B0013449B00154A1A447B682C
:104AC000043319461046FFF77EF800F0AFFF0D4B98
:104AD0001B68002B0ED00A4B1B68DA6A7B68DB6A06
:104AE0009A4207D20B4B4FF080521A60BFF34F8FA0
:104AF000BFF36F8F00BF0837BD4680BDAC040020F8
:104B0000AC030020B8040020C8040020B404002036
:104B1000B003002004ED00E080B584B000AF786001
:104B20000023FB607B68002B17D0134B1B68002B06
:104B30000AD04FF0500383F31188BFF36F8FBFF398
:104B40004F8FBB6000BFFEE700F084F8002178685B
:104B500000F0E4FD00F08CF8F860FB68002B07D152
:104B6000064B4FF080521A60BFF34F8FBFF36F8F29
:104B700000BF1037BD4680BDD404002004ED00E026
:104B800080B58AB004AF0023BB6000237B603A4647
:104B9000391D07F108031846FCF79CF839687B6853
:104BA000BA68029201930023009300230A46214928
:104BB0002148FFF706FE0346204A13601F4B1B687F
:104BC000002B02D001237B6101E000237B617B6924
:104BD000012B1BD14FF0500383F31188BFF36F8F6C
:104BE000BFF34F8F3B6100BF154B1B684C33154A19
:104BF0001360154B4FF0FF321A60144B01221A60FC
:104C0000134B00221A6000F06FFE0EE07B69B3F1D7
:104C1000FF3F0AD14FF0500383F31188BFF36F8F2A
:104C2000BFF34F8FFB6000BFFEE700BF1837BD46E4
:104C300080BD00BF2C6B0008F1510008D00400209B
:104C4000AC03002018000020CC040020B804002091
:104C5000B004002080B400AF044B1B680133034A4A
:104C6000136000BFBD4680BC704700BFD404002065
:104C700080B584B000AF0023FB600023BB60414BD4
:104C80001B68002B0AD14FF0500383F31188BFF348
:104C90006F8FBFF34F8F3B6000BFFEE700F096FEC3
:104CA000384B1B68013B374A1360364B1B68002B9F
:104CB00061D1354B1B68002B5DD02EE0334BDB6898
:104CC000DB68FB60FB6818331846FEF7D7FFFB680C
:104CD00004331846FEF7D2FFFB68DB6A01229A40D4
:104CE0002B4B1B6813432A4A1360FB68DA6A13468E
:104CF0009B0013449B00274A1A44FB68043319465F
:104D00001046FEF760FFFB68DA6A234B1B68DB6A1C
:104D10009A4202D3214B01221A601C4B1B68002BC4
:104D2000CCD1FB68002B01D000F01CFB1C4B1B6896
:104D30007B607B68002B10D000F036F80346002B18
:104D400002D0164B01221A607B68013B7B607B68B6
:104D5000002BF1D1124B00221A60104B1B68002B64
:104D600009D00123BB600F4B4FF080521A60BFF394
:104D70004F8FBFF36F8F00F059FEBB681846103796
:104D8000BD4680BDD4040020AC0400206C0400208B
:104D9000B4040020B0030020AC030020C0040020B5
:104DA000BC04002004ED00E080B586B000AF002315
:104DB0007B614E4B1B68002B40F08E804C4B1B6878
:104DC00001333B614A4A3B6913603B69002B20D1A8
:104DD000484B1B681B68002B0AD04FF0500383F32D
:104DE0001188BFF36F8FBFF34F8F3B6000BFFEE7AB
:104DF000404B1B68FB60404B1B683E4A13603E4AB9
:104E0000FB6813603D4B1B6801333C4A136000F0A4
:104E1000A9FA3B4B1B683A699A4248D3354B1B6849
:104E20001B68002B04D1364B4FF0FF321A603EE076
:104E3000304B1B68DB68DB68BB60BB685B687B6012
:104E40003A697B689A4203D22D4A7B6813602EE050
:104E5000BB6804331846FEF711FFBB689B6A002B42
:104E600004D0BB6818331846FEF708FFBB68DB6A3E
:104E700001229A40234B1B681343224A1360BB68EC
:104E8000DA6A13469B0013449B001F4A1A44BB680E
:104E9000043319461046FEF796FEBB68DA6A1B4BD0
:104EA0001B68DB6A9A42B9D301237B61B6E7174BD3
:104EB0001B68DA6A144913469B0013449B000B4499
:104EC0001B68012B01D901237B61114B1B68002B4F
:104ED00007D001237B6104E00E4B1B6801330D4AB0
:104EE00013607B6918461837BD4680BDD404002086
:104EF000B00400206404002068040020C4040020E2
:104F0000CC040020B4040020B0030020AC03002037
:104F1000C0040020BC04002080B487B000AF294B3F
:104F20001B68002B03D0284B01221A6044E0264B5B
:104F300000221A60254B1B68FB60FB68B3FA83F301
:104F4000FB72FB7AC3F11F037B6121497A69134627
:104F50009B0013449B000B441B68002B0AD14FF0AD
:104F6000500383F31188BFF36F8FBFF34F8F7B60C4
:104F700000BFFEE77A6913469B0013449B00144A66
:104F800013443B613B695B685A683B695A603B6903
:104F90005A683B6908339A4204D13B695B685A6896
:104FA0003B695A603B695B68DB680A4A1360094BDE
:104FB0001B684C33084A136000BF1C37BD4680BCD9
:104FC000704700BFD4040020C0040020B4040020B7
:104FD000B0030020AC0300201800002080B584B08E
:104FE00000AF786039607B68002B0AD14FF0500326
:104FF00083F31188BFF36F8FBFF34F8FFB6000BF48
:10500000FEE7074B1B68183319467868FEF7FEFD6C
:105010000121386800F082FB00BF1037BD4680BD1B
:10502000AC03002080B586B000AF78607B68DB6899
:10503000DB683B613B69002B0AD14FF0500383F3DF
:105040001188BFF36F8FBFF34F8FFB6000BFFEE788
:105050003B6918331846FEF711FE1D4B1B68002BE9
:105060001CD13B6904331846FEF708FE3B69DB6A36
:1050700001229A40174B1B681343164A13603B6981
:10508000DA6A13469B0013449B00134A1A443B6997
:10509000043319461046FEF796FD05E03B691833C8
:1050A00019460E48FEF78FFD3B69DA6A0C4B1B6808
:1050B000DB6A9A4205D901237B610A4B01221A60FF
:1050C00001E000237B617B6918461837BD4680BD2F
:1050D000D4040020B4040020B00300206C0400209D
:1050E000AC030020C004002080B483B000AF78601F
:1050F000064B1A687B681A60054B1A687B685A6011
:1051000000BF0C37BD4680BC704700BFC404002000
:10511000B004002080B588B000AF786039607B684B
:10512000002B0AD14FF0500383F31188BFF36F8F28
:10513000BFF34F8F3B6100BFFEE73B68002B0AD1F6
:105140004FF0500383F31188BFF36F8FBFF34F8F7E
:10515000FB6000BFFEE700F039FC1D4B1B68BB6124
:105160007B685B68BA69D31A7B613B681B68B3F1E3
:10517000FF3F02D10023FB6123E07B681A68154BD7
:105180001B689A4207D07B685B68BA699A4202D36F
:105190000123FB6115E03B681B687A699A420BD2D8
:1051A0003B681A687B69D21A3B681A607868FFF717
:1051B0009BFF0023FB6104E03B6800221A6001238F
:1051C000FB6100F033FCFB6918462037BD4680BD0B
:1051D000B0040020C404002080B400AF034B0122BF
:1051E0001A6000BFBD4680BC704700BFC0040020ED
:1051F00080B582B000AF786000F052F8064B1B68B3
:10520000012BF9D9054B4FF080521A60BFF34F8F35
:10521000BFF36F8FF0E700BFB003002004ED00E0A4
:1052200080B582B000AF00237B600CE07A68134643
:105230009B0013449B00124A13441846FEF798FC47
:105240007B6801337B607B68062BEFD90D48FEF746
:105250008FFC0D48FEF78CFC0C48FEF789FC0C48CF
:10526000FEF786FC0B48FEF783FC0B4B054A1A60E1
:105270000A4B054A1A6000BF0837BD4680BD00BF13
:10528000B00300203C040020500400206C040020E7
:10529000800400209804002064040020680400209A
:1052A00080B582B000AF19E000F090FB104BDB68D6
:1052B000DB687B607B6804331846FEF7DFFC0D4B30
:1052C0001B68013B0B4A13600B4B1B68013B0A4AEE
:1052D000136000F0ABFB786800F010F8064B1B6819
:1052E000002BE1D100BF00BF0837BD4680BD00BF25
:1052F00080040020AC0400209404002080B584B019
:1053000000AF78607B684C33184600F0F1FE7B6894
:1053100093F8B130002B08D17B681B6B184600F066
:1053200021FD786800F01EFD18E07B6893F8B1302D
:10533000012B03D1786800F015FD0FE07B6893F82E
:10534000B130022B0AD04FF0500383F31188BFF322
:105350006F8FBFF34F8FFB6000BFFEE700BF1037BA
:10536000BD4680BD80B483B000AF0C4B1B681B688A
:10537000002B04D10A4B4FF0FF321A6008E0074BB4
:105380001B68DB68DB687B607B685B68044A1360D2
:1053900000BF0C37BD4680BC704700BF64040020CE
:1053A000CC04002080B483B000AF0B4B1B68002BF3
:1053B00002D101237B6008E0084B1B68002B02D15F
:1053C00002237B6001E000237B607B6818460C377A
:1053D000BD4680BC704700BFB8040020D404002044
:1053E00080B584B000AF78607B68BB600023FB6051
:1053F0007B68002B5ED0BB68DA6A314B1B68DB6AC6
:105400009A424ED2BB689B69002B06DB2C4B1B6873
:10541000DB6AC3F10702BB689A61BB685969BB6864
:10542000DA6A13469B0013449B00264A13449942B0
:105430002FD1BB6804331846FEF720FC0346002B2F
:105440000AD1BB68DB6A012202FA03F3DA431E4B7E
:105450001B6813401C4A1360194B1B68DA6ABB684F
:10546000DA62BB68DB6A01229A40174B1B68134360
:10547000154A1360BB68DA6A13469B0013449B000D
:10548000104A1A44BB68043319461046FEF79BFBCA
:1054900004E00B4B1B68DA6ABB68DA620123FB602D
:1054A00008E0BB685A6C064B1B68DB6A9A4201D263
:1054B0000123FB60FB6818461037BD4680BD00BF66
:1054C000AC030020B0030020B404002080B586B0F7
:1054D00000AF78607B683B6100237B617B68002BB9
:1054E0006ED03A4B1B683A699A420AD04FF050038B
:1054F00083F31188BFF36F8FBFF34F8FFB6000BF43
:10550000FEE73B699B6C002B0AD14FF0500383F3FD
:105510001188BFF36F8FBFF34F8FBB6000BFFEE7F3
:105520003B699B6C5A1E3B699A643B69DA6A3B692A
:105530005B6C9A4244D03B699B6C002B40D13B6929
:1055400004331846FEF79AFB0346002B15D13B693E
:10555000DA6A1F4913469B0013449B000B441B68E7
:10556000002B0AD13B69DB6A012202FA03F3DA431A
:10557000184B1B681340174A13603B695A6C3B6910
:10558000DA623B69DB6AC3F107023B699A613B69F6
:10559000DB6A01229A400F4B1B6813430D4A1360CC
:1055A0003B69DA6A13469B0013449B00084A1A447D
:1055B0003B69043319461046FEF705FB01237B6166
:1055C0007B6918461837BD4680BD00BFAC0300207C
:1055D000B0030020B404002080B588B000AF78602C
:1055E00039607B68BB6101237B617B68002B77D0CE
:1055F000BB699B6C002B0AD14FF0500383F31188D9
:10560000BFF36F8FBFF34F8FFB6000BFFEE7BB6937
:105610005B6C3A689A4202D93B68FB6102E0BB6965
:105620005B6CFB61BB69DB6AFA699A4258D0BB6963
:105630009B6C7A699A4253D12B4B1B68BA699A4288
:105640000AD14FF0500383F31188BFF36F8FBFF37C
:105650004F8FBB6000BFFEE7BB69DB6A3B61BB6984
:10566000FA69DA62BB699B69002B04DBFB69C3F151
:105670000702BB699A61BB6959693A6913469B0085
:1056800013449B00194A1344994229D1BB6904333E
:105690001846FEF7F3FA0346002B0AD1BB69DB6A12
:1056A000012202FA03F3DA43114B1B681340104A3C
:1056B0001360BB69DB6A01229A400D4B1B681343E0
:1056C0000B4A1360BB69DA6A13469B0013449B00C4
:1056D000064A1A44BB69043319461046FEF773FAAA
:1056E00000BF2037BD4680BDAC030020B0030020C2
:1056F000B404002080B400AF074B1B68002B04D01B
:10570000054B1B689A6C01329A64034B1B68184660
:10571000BD4680BC704700BFAC03002080B584B09C
:1057200000AF78603960294B1B68FB60284B1B6811
:1057300004331846FEF7A2FA0346002B0BD1244B84
:105740001B68DB6A012202FA03F3DA43214B1B6870
:105750001340204A13607B68B3F1FF3F0AD13B68D6
:10576000002B07D01A4B1B68043319461A48FEF762
:105770002AFA26E0FA687B681344BB60144B1B6866
:10578000BA685A60BA68FB689A4209D2134B1A6821
:105790000F4B1B68043319461046FEF737FA10E02A
:1057A0000F4B1A680A4B1B68043319461046FEF764
:1057B0002DFA0C4B1B68BA689A4202D2094ABB68A0
:1057C000136000BF1037BD4680BD00BFB00400208D
:1057D000AC030020B40400209804002068040020DA
:1057E00064040020CC04002080B485B000AFF860D1
:1057F000B9607A60FB68043BFB60FB684FF0807225
:105800001A60FB68043BFB60BB6823F00102FB6885
:105810001A60FB68043BFB60084AFB681A60FB687F
:10582000143BFB607A68FB681A60FB68203BFB60F6
:10583000FB6818461437BD4680BC704741580008C5
:1058400080B485B000AF00237B60124B1B68B3F1BE
:10585000FF3F0AD04FF0500383F31188BFF36F8FDF
:10586000BFF34F8FFB6000BFFEE74FF0500383F3A1
:105870001188BFF36F8FBFF34F8FBB6000BF00BFB6
:105880007B68002BFCD000BF00BF1437BD4680BC36
:10589000704700BF1400002000000000000000005E
:1058A000074B19680868B0E8F00F80F30988BFF368
:1058B0006F8F4FF0000080F311884EF00D0E70478F
:1058C000AC03002000BF00BF06480068006880F3FA
:1058D000088862B661B6BFF34F8FBFF36F8F00DFEA
:1058E00000BF00BF08ED00E080B584B000AF324BD0
:1058F000FB60FB681B78DBB27B60FB68FF221A70E1
:10590000FB681B78DBB2FB70FB78DBB203F0500363
:10591000DAB22A4B1A702A4B07221A6009E0284B88
:105920001B68013B264A1360FB78DBB25B00DBB2ED
:10593000FB70FB78DBB203F08003802BEFD0204BB1
:105940001B68C3F10703042B0AD04FF0500383F305
:105950001188BFF36F8FBFF34F8FBB6000BFFEE7AF
:10596000174B1B681B02164A1360154B1B6803F488
:10597000E063134A13607B68DAB2FB681A70114B5C
:105980001B68104A43F4700313600E4B1B680D4AEA
:1059900043F07043136000F0B9F80B4B00221A601B
:1059A000FFF792FFFFF7B8FAFFF74AFF0023184608
:1059B0001037BD4680BD00BF00E400E0D8040020E1
:1059C000DC04002020ED00E01400002080B483B04F
:1059D00000AF4FF0500383F31188BFF36F8FBFF315
:1059E0004F8F7B6000BF0F4B1B6801330D4A136064
:1059F0000C4B1B68012B0FD10B4B1B68DBB2002B30
:105A00000AD04FF0500383F31188BFF36F8FBFF3B9
:105A10004F8F3B6000BFFEE700BF0C37BD4680BC28
:105A2000704700BF1400002004ED00E080B483B094
:105A300000AF114B1B68002B0AD14FF0500383F3CA
:105A40001188BFF36F8FBFF34F8F7B6000BFFEE7FE
:105A5000094B1B68013B084A1360074B1B68002B6E
:105A600005D100233B603B6883F3118800BF00BF72
:105A70000C37BD4680BC70471400002000000000B9
:105A8000EFF30980BFF36F8F0D4B1A6820E9F00F19
:105A900010602DE908404FF0500080F31188FFF7A7
:105AA0003BFA4FF0000080F31188BDE80840196808
:105AB0000868B0E8F00F80F30988BFF36F8F704774
:105AC000AC03002000BF00BF80B582B000AF4FF034
:105AD000500383F31188BFF36F8FBFF34F8F7B6049
